:100000000C944D010C946A010C946A010C946A01E1
:100010000C946A010C94D10E0C946A010C946A0140
:100020000C947E100C946A010C946A010C946A0181
:100030000C946A010C94060F0C946A010C946A01EA
:100040000C9479110C946A010C946A010C946A0165
:100050000C946A010C946A010C946A010C946A0174
:100060000C946A010C946A010C946A010C946A0164
:100070001DEFEED4A990421615CDB0B144AF7E8EDF
:10008000AE099DF62208BAA868644A365E5CF20A98
:1000900052096AD53036A538BF40A39E81F3D7FBFD
:1000A0007CE339829B2FFF87348E4344C4DEE9CB47
:1000B000547B9432A6C2233DEE4C950B42FAC34EBC
:1000C000082EA16628D924B2765BA2496D8BD12572
:1000D00072F8F66486689816D4A45CCC5D65B69216
:1000E0006C704850FDEDB9DA5E154657A78D9D84BA
:1000F00090D8AB008CBCD30AF7E45805B8B34506DA
:10010000D02C1E8FCA3F0F02C1AFBD0301138A6BF3
:100110003A9111414F67DCEA97F2CFCEF0B4E67323
:1001200096AC7422E7AD3585E2F937E81C75DF6ED1
:1001300047F11A711D29C5896FB7620EAA18BE1B37
:10014000FC563E4BC6D279209ADBC0FE78CD5AF4DD
:100150001FDDA8338807C731B11210592780EC5F23
:1001600060517FA919B54A0D2DE57A9F93C99CEF7F
:10017000A0E03B4DAE2AF5B0C8EBBB3C8353996180
:10018000172B047EBA77D626E169146355210C7DBE
:1001900001020408102040801B36637C777BF26BE1
:1001A0006FC53001672BFED7AB76CA82C97DFA597D
:1001B00047F0ADD4A2AF9CA472C0B7FD9326363FE2
:1001C000F7CC34A5E5F171D8311504C723C31896CF
:1001D000059A071280E2EB27B27509832C1A1B6E71
:1001E0005AA0523BD6B329E32F8453D100ED20FC13
:1001F000B15B6ACBBE394A4C58CFD0EFAAFB434D16
:10020000338545F9027F503C9FA851A3408F929DB2
:1002100038F5BCB6DA2110FFF3D2CD0C13EC5F97A2
:100220004417C4A77E3D645D197360814FDC222AA8
:10023000908846EEB814DE5E0BDBE0323A0A4906DF
:10024000245CC2D3AC629195E479E7C8376D8DD553
:100250004EA96C56F4EA657AAE08BA78252E1CA62B
:10026000B4C6E8DD741F4BBD8B8A703EB56648038B
:10027000F60E613557B986C11D9EE1F8981169D90E
:100280008E949B1E87E9CE5528DF8CA1890DBFE691
:10029000426841992D0FB054BB1611241FBECFEFF9
:1002A000D0E1DEBFCDBF11E0A0E0B1E0E8E5FFE2C4
:1002B00002C005900D92A636B107D9F717E0A6E661
:1002C000B1E001C01D92AE30B107E1F70E94A51167
:1002D0000C94AA170C940000EF91FF912F923F927B
:1002E0004F925F926F927F928F929F92AF92BF9246
:1002F000CF92DF92EF92FF920F931F93CF93DF93F2
:10030000DFB7D7FBF894ADB7BEB79EBF87E08DBF10
:10031000BF93AF93FF93EF935596CD91DC91689681
:100320007A906A905A904A903A902A901A900A903D
:10033000FA91EA91E093D601F093D801FE01D291AF
:10034000C291B291A291929182918093D7018FE351
:100350008DBF7F936F935F934F933F932F931F9323
:100360000F93FF92EF92DF92CF92BF92AF929F9244
:100370008F92082519252A253B254C255D256E25BC
:100380007F25709681909190A190B190C190D1906D
:10039000E190F19087E48DBF7F936F935F934F93CC
:1003A0003F932F931F930F9305E515E59801A8013F
:1003B000B80187E08DBF8F9108278F9118278F9103
:1003C00028278F9138278F9148278F9158278F9111
:1003D00068278F9178278F9108278F9118278F9101
:1003E00028278F9138278F9148278F9158278F91F1
:1003F00068278F9178278F9108278F9118278F91E1
:1004000028278F9138278F9148278F9158278F91D0
:1004100068278F9178278F9108278F9118278F91C0
:1004200028278F9138278F9148278F9158278F91B0
:1004300068278F91782778978FE28DBF82917F937D
:10044000782F82916F93682F82915F93582F8291BA
:100450004F93482F82913F93382F82912F93282FCB
:1004600082911F93182F82910F93082FE091D6014C
:100470008091D701F3E0FDBF08950091D801E0938A
:10048000D601F093D8018093D701F5E0FDBFEF913D
:10049000FF9177968191F081E82F8091D7010193A8
:1004A000119321933193419351936193719381936C
:1004B0009193A193B193C193D193C091D601D0915F
:1004C000D801C193D193019211922192319241921C
:1004D00051926192719281929192A192B192C19244
:1004E000D192E192F19205E00DBFAF91BF91ADBF06
:1004F000BEBFDF91CF911F910F91FF90EF90DF90E2
:10050000CF90BF90AF909F908F907F906F905F90B3
:100510004F903F902F9011240EF478940895F0910D
:10052000D701FDBFFF910F1BFF911F0BFF912F0BF9
:10053000FF913F0BFF914F0BFF915F0BFF916F0BF3
:10054000FF917F0BF091D8010093D8010DB70F32C6
:1005500011F407E00DBF0F91801B0F91900B0F91CD
:10056000A00B0F91B00B0F91C00B0F91D00B0F91FF
:10057000E00B0F91F00B0DB70F3211F407E00DBF38
:100580000F91001A0F91100A0F91200A0F91300A53
:100590000F91400A0F91500A0F91600A0F91700A53
:1005A0000DB70F3211F407E00DBF0F91801A0F91B4
:1005B000900A0F91A00A0F91B00A0F91C00A0F91F3
:1005C000D00A0F91E00A0F91F00A0DB70F3209F42B
:1005D00007E00093D7010091D9010DBF0F91801B57
:1005E0000F91900B0F91A00B0F91B00B0F91C00BBF
:1005F0000F91D00B0F91E00B0F91F00B0DB707345B
:1006000011F40FE20DBF0F91001A0F91100A0F9114
:10061000200A0F91300A0F91400A0F91500A0F9152
:10062000600A0F91700A0DB7073409F40FE20093C6
:10063000D9010091D6010A950093D601801A0027AE
:10064000900AA00AB00AC00AD00AE00AF00A009193
:10065000D8010EF4789480269126A226B326C426CB
:10066000D526E626F7260C191D092E093F0948094B
:1006700059096A097B0980259125A225B325C4253E
:10068000D525E625F7250C1A1D0A2E0A3F0A480A29
:10069000590A6A0A7B0AC027D127E227F327842751
:1006A0009527A627B727B0FBA69597958795F79529
:1006B000E795D795C795B795A7F9B0FBA6959795F8
:1006C0008795F795E795D795C795B795A7F90B1B2C
:1006D0001C0B2D0B3E0B4F0B580B690B7A0BC024D8
:1006E000D124E224F32484249524A624B724E7FA11
:1006F000FF0C881C991CAA1CBB1CCC1CDD1CEE1C0E
:10070000F0F8E7FAFF0C881C991CAA1CBB1CCC1C37
:10071000DD1CEE1CF0F80F18180829083A084B08E1
:100720005C086D087E08F02681269226A326B42652
:10073000C526D626E726C7FADD0CEE1CFF1C881C52
:10074000991CAA1CBB1CCC1CD0F8C7FADD0CEE1CF3
:10075000FF1C881C991CAA1CBB1CCC1CD0F80D19B2
:100760001E092F09380949095A096B097C09B02566
:10077000C125D225E325F42585259625A725C0FB8F
:10078000B695A79597958795F795E795D795C795CA
:10079000B7F9C0FBB695A79597958795F795E79517
:1007A000D795C795B7F9C0FBB695A7959795879547
:1007B000F795E795D795C795B7F9C0FBB695A79577
:1007C00097958795F795E795D795C795B7F90C1A3B
:1007D0001D0A2E0A3F0A480A590A6A0A7B0AC027DC
:1007E000D127E227F32784279527A627B727F0FBF1
:1007F000E695D795C795B795A79597958795F7955A
:10080000E7F90F1B180B290B3A0B4B0B5C0B6D0B0D
:100810007E0BD024E124F22483249424A524B6243E
:10082000C72490FA8694F794E794D794C794B79422
:10083000A794979487F809181A082B083C084D08C4
:100840005E086F087808F093D801FFB7F7FBF894BB
:10085000F091D701FDBFFF910F1BFF911F0BFF917F
:100860002F0BFF913F0BFF914F0BFF915F0BFF9100
:100870006F0BFF917F0BF091D8010093D8010DB75A
:100880000F3211F407E00DBF0F91F01B0F91800B99
:100890000F91900B0F91A00B0F91B00B0F91C00B0C
:1008A0000F91D00B0F91E00B0DB70F3211F407E051
:1008B0000DBF0F91001A0F91100A0F91200A0F918E
:1008C000300A0F91400A0F91500A0F91600A0F9160
:1008D000700A0DB70F3211F407E00DBF0F91901A97
:1008E0000F91A00A0F91B00A0F91C00A0F91D00A80
:1008F0000F91E00A0F91F00A0F91800A0DB70F32A5
:1009000009F407E00093D7010091D9010DBF0F91C1
:10091000F01B0F91800B0F91900B0F91A00B0F917B
:10092000B00B0F91C00B0F91D00B0F91E00B0DB7D7
:10093000073411F40FE20DBF0F91001A0F91100A46
:100940000F91200A0F91300A0F91400A0F91500A1F
:100950000F91600A0F91700A0DB7073409F40FE286
:100960000093D9010091D6010A950093D601901AFF
:100970000027A00AB00AC00AD00AE00AF00A800ADA
:100980000091D8010EF478949026A126B226C326B1
:10099000D426E526F626872697FAAA0CBB1CCC1C83
:1009A000DD1CEE1CFF1C881C991CA0F897FAAA0CF1
:1009B000BB1CCC1CDD1CEE1CFF1C881C991CA0F869
:1009C00097FAAA0CBB1CCC1CDD1CEE1CFF1C881C5F
:1009D000991CA0F80A191B092C093D094E095F0949
:1009E00068097909F02581259225A325B425C52517
:1009F000D625E725B7FBCC0FDD1FEE1FFF1F881F95
:100A0000991FAA1FBB1FC0F9B7FBCC0FDD1FEE1F3C
:100A1000FF1F881F991FAA1FBB1FC0F9B7FBCC0F70
:100A2000DD1FEE1FFF1F881F991FAA1FBB1FC0F9E4
:100A30000C1A1D0A2E0A3F0A480A590A6A0A7B0A3A
:100A4000C027D127E227F32784279527A627B72792
:100A5000E7FBFF0F881F991FAA1FBB1FCC1FDD1FBD
:100A6000EE1FF0F90F1B180B290B3A0B4B0B5C0B0D
:100A70006D0B7E0BA024B124C224D324E424F524DE
:100A8000862497240F18180829083A084B085C0890
:100A90006D087E08F02681269226A326B426C52658
:100AA000D626E726D7FAEE0CFF1C881C991CAA1C38
:100AB000BB1CCC1CDD1CE0F8D7FAEE0CFF1C881C1C
:100AC000991CAA1CBB1CCC1CDD1CE0F8D7FAEE0C50
:100AD000FF1C881C991CAA1CBB1CCC1CDD1CE0F84C
:100AE000D7FAEE0CFF1C881C991CAA1CBB1CCC1C42
:100AF000DD1CE0F80E191F09280939094A095B09AC
:100B00006C097D09F02581259225A325B425C525ED
:100B1000D625E725E0FBD695C795B795A795979578
:100B20008795F795E795D7F90E1A1F0A280A390A0B
:100B30004A0A5B0A6C0A7D0AE027F127822793277D
:100B4000A427B527C627D727F7FB880F991FAA1F09
:100B5000BB1FCC1FDD1FEE1FFF1F80F9F7FB880FA7
:100B6000991FAA1FBB1FCC1FDD1FEE1FFF1F80F99F
:100B7000081B190B2A0B3B0B4C0B5D0B6E0B7F0BF1
:100B8000E024F12482249324A424B524C624D72469
:100B9000081819082A083B084C085D086E087F08E9
:100BA000F093D801FFB7F7FBF894F3E0FDBF089589
:100BB0000E946C01F3E1F093D601FFE1F093D701BD
:100BC000FFE2F093D9010E948F020E948F020E94DF
:100BD0008F020E948F020E948F020E948F020E9449
:100BE0008F020E948F020E948F02F091D701FDBFF9
:100BF000FF910F1BFF911F0BFF912F0BFF913F0BDD
:100C0000FF914F0BFF915F0BFF916F0BFF917F0BDC
:100C1000F091D8010093D8010DB70F3211F407E01D
:100C20000DBF0F91801B0F91900B0F91A00B0F9197
:100C3000B00B0F91C00B0F91D00B0F91E00B0F91E8
:100C4000F00B0DB70F3211F407E00DBF0F91001A32
:100C50000F91100A0F91200A0F91300A0F91400A4C
:100C60000F91500A0F91600A0F91700A0DB70F3261
:100C700011F407E00DBF0F91801A0F91900A0F91A8
:100C8000A00A0F91B00A0F91C00A0F91D00A0F91DC
:100C9000E00A0F91F00A0091D9010DBF0F91801B5E
:100CA0000F91900B0F91A00B0F91B00B0F91C00BF8
:100CB0000F91D00B0F91E00B0F91F00B0DB7073494
:100CC00011F40FE20DBF0F91001A0F91100A0F914E
:100CD000200A0F91300A0F91400A0F91500A0F918C
:100CE000600A0F91700A0091D6010A95801A0027B8
:100CF000900AA00AB00AC00AD00AE00AF00A0C94CE
:100D00003D02F091D701FDBFFF910F0FFF911F1F13
:100D1000FF912F1FFF913F1FFF914F1FFF915F1FFB
:100D2000FF916F1FFF917F1FF091D8010093D801B1
:100D30000DB70F3211F407E00DBF0093D7010F91EB
:100D4000800F0F91901F0F91A01F0F91B01F0F9157
:100D5000C01F0F91D01F0F91E01F0F91F01F0DB713
:100D60000F3211F407E00DBF0F91000E0F91101E0E
:100D70000F91201E0F91301E0F91401E0F91501E9B
:100D80000F91601E0F91701E0DB70F3211F407E026
:100D90000DBF0F91800E0F91901E0F91A01E0F910D
:100DA000B01E0F91C01E0F91D01E0F91E01E0F912B
:100DB000F01E0091D9010DBF0F91800F0F91901F70
:100DC0000F91A01F0F91B01F0F91C01F0F91D01F47
:100DD0000F91E01F0F91F01F0DB7073411F40FE2D0
:100DE0000DBF0093D9010F91000E0F91101E0F91AE
:100DF000201E0F91301E0F91401E0F91501E0F911B
:100E0000601E0F91701E0091D60103950093D601CC
:100E1000800E0027901EA01EB01EC01ED01EE01E19
:100E2000F01E03E00DBF0091D8010EF47894080F76
:100E3000191F2A1F3B1F4C1F5D1F6E1F7F1FE0FBEA
:100E4000D695C795B795A79597958795F795E79503
:100E5000D7F9E0FBD695C795B795A7959795879550
:100E6000F795E795D7F9E027F12782279327A4275D
:100E7000B527C627D727080C191C2A1C3B1C4C1C5D
:100E80005D1C6E1C7F1CE024F12482249324A42486
:100E9000B524C624D7240E0D1F1D281D391D4A1D3B
:100EA0005B1D6C1D7D1DF0FAE694D794C794B79432
:100EB000A79497948794F794E7F8F0FAE694D79478
:100EC000C794B794A79497948794F794E7F8F0FAA7
:100ED000E694D794C794B794A79497948794F7947B
:100EE000E7F8F0FAE694D794C794B794A794979448
:100EF0008794F794E7F8F02681269226A326B42655
:100F0000C526D626E7260E0E1F1E281E391E4A1E8F
:100F10005B1E6C1E7D1EE7FBFF0F881F991FAA1F1B
:100F2000BB1FCC1FDD1FEE1FF0F9F0258125922598
:100F3000A325B425C525D625E7250F0F181F291F82
:100F40003A1F4B1F5C1F6D1F7E1FC0FBB695A795F8
:100F500097958795F795E795D795C795B7F9C027E2
:100F6000D127E227F32784279527A627B7270F0C39
:100F7000181C291C3A1C4B1C5C1C6D1C7E1CA024DC
:100F8000B124C224D324E424F524862497240A0D12
:100F90001B1D2C1D3D1D4E1D5F1D681D791D90FAEA
:100FA0008694F794E794D794C794B794A7949794AA
:100FB00087F890FA8694F794E794D794C794B794F7
:100FC000A794979487F890FA8694F794E794D79427
:100FD000C794B794A794979487F89026A126B22631
:100FE000C326D426E526F62687260C0E1D1E2E1EA9
:100FF0003F1E481E591E6A1E7B1EF0FBE695D795C4
:10100000C795B795A79597958795F795E7F9F0FB5D
:10101000E695D795C795B795A79597958795F79531
:10102000E7F9F0FBE695D795C795B795A7959795FE
:101030008795F795E7F9F02581259225A325B42515
:10104000C525D625E725F093D801FFB7F7FBF8941F
:10105000F091D701FDBFFF910F0FFF911F1FFF916F
:101060002F1FFF913F1FFF914F1FFF915F1FFF91A8
:101070006F1FFF917F1FF091D8010093D8010DB72A
:101080000F3211F407E00DBF0093D7010F91F00F5D
:101090000F91801F0F91901F0F91A01F0F91B01FF4
:1010A0000F91C01F0F91D01F0F91E01F0DB70F328E
:1010B00011F407E00DBF0F91000E0F91101E0F915C
:1010C000201E0F91301E0F91401E0F91501E0F9148
:1010D000601E0F91701E0DB70F3211F407E00DBFA7
:1010E0000F91900E0F91A01E0F91B01E0F91C01E78
:1010F0000F91D01E0F91E01E0F91F01E0F91801ED8
:101100000091D9010DBF0F91F00F0F91801F0F912A
:10111000901F0F91A01F0F91B01F0F91C01F0F9133
:10112000D01F0F91E01F0DB7073411F40FE20DBF70
:101130000093D9010F91000E0F91101E0F91201EE8
:101140000F91301E0F91401E0F91501E0F91601E87
:101150000F91701E0091D60103950093D601900E59
:101160000027A01EB01EC01ED01EE01EF01E801E56
:1011700003E00DBF0091D8010EF478940F0F181FF3
:10118000291F3A1F4B1F5C1F6D1F7E1FB7FBCC0F23
:10119000DD1FEE1FFF1F881F991FAA1FBB1FC0F96D
:1011A000C027D127E227F32784279527A627B7272B
:1011B000090C1A1C2B1C3C1C4D1C5E1C6F1C781C43
:1011C000C7FADD0CEE1CFF1C881C991CAA1CBB1C5A
:1011D000CC1CD0F8D024E124F22483249424A52428
:1011E000B624C7240D0D1E1D2F1D381D491D5A1D67
:1011F0006B1D7C1DF0FAE694D794C794B794A7941E
:1012000097948794F794E7F8F0FAE694D794C79404
:10121000B794A79497948794F794E7F8F0268126DB
:101220009226A326B426C526D626E7260C0E1D1E1A
:101230002E1E3F1E481E591E6A1E7B1EA7FBBB0F9B
:10124000CC1FDD1FEE1FFF1F881F991FAA1FB0F9BB
:10125000A7FBBB0FCC1FDD1FEE1FFF1F881F991FB1
:10126000AA1FB0F9A7FBBB0FCC1FDD1FEE1FFF1F8E
:10127000881F991FAA1FB0F9A7FBBB0FCC1FDD1F4A
:10128000EE1FFF1F881F991FAA1FB0F9B025C125A7
:10129000D225E325F42585259625A7250B0F1C1FB0
:1012A0002D1F3E1F4F1F581F691F7A1FB7FBCC0F02
:1012B000DD1FEE1FFF1F881F991FAA1FBB1FC0F94C
:1012C000B7FBCC0FDD1FEE1FFF1F881F991FAA1F42
:1012D000BB1FC0F9C027D127E227F3278427952712
:1012E000A627B7270F0C181C291C3A1C4B1C5C1C8A
:1012F0006D1C7E1CC0FAB694A79497948794F794BB
:10130000E794D794C794B7F8C0FAB694A794979483
:101310008794F794E794D794C794B7F8C024D1245E
:10132000E224F32484249524A624B7240C0D1D1D47
:101330002E1D3F1D481D591D6A1D7B1D80269126AF
:10134000A226B326C426D526E626F7260C0E1D1E99
:101350002E1E3F1E481E591E6A1E7B1E802591258B
:10136000A225B325C425D525E625F725F093D80178
:10137000FFB7F7FBF89408950E946C01FFEFF0931C
:10138000D601F7E0F093D701FFE2F093D9010E9474
:1013900081060E9481060E9481060E9481060E94A9
:1013A00081060E9481060E9481060E9481060E9499
:1013B0008106F091D701FDBFFF910F0FFF911F1F15
:1013C000FF912F1FFF913F1FFF914F1FFF915F1F45
:1013D000FF916F1FFF917F1FF091D8010093D801FB
:1013E0000DB70F3211F407E00DBF0F91800F0F9171
:1013F000901F0F91A01F0F91B01F0F91C01F0F9151
:10140000D01F0F91E01F0F91F01F0DB70F3211F495
:1014100007E00DBF0F91000E0F91101E0F91201EBF
:101420000F91301E0F91401E0F91501E0F91601EA4
:101430000F91701E0DB70F3211F407E00DBF0F9121
:10144000800E0F91901E0F91A01E0F91B01E0F9154
:10145000C01E0F91D01E0F91E01E0F91F01E009143
:10146000D9010DBF0F91800F0F91901F0F91A01FF9
:101470000F91B01F0F91C01F0F91D01F0F91E01F50
:101480000F91F01F0DB7073411F40FE20DBF0F914C
:10149000000E0F91101E0F91201E0F91301E0F9104
:1014A000401E0F91501E0F91601E0F91701E0091F3
:1014B000D6010395800E0027901EA01EB01EC01EF0
:1014C000D01EE01EF01E03E00DBF0C943D02782FED
:1014D0008827769531F008F48627660F08F464278C
:1014E000F8CF08F4862708956F927F928F929F928B
:1014F000AF92BF92CF92DF92EF92FF920F931F9322
:10150000CF93DF93EB0127EA622E21E0722ED30105
:101510002C91FC0120A7B9962FE1DF011D922A959D
:10152000E9F7DF936F939C01285D3F4F3F932F9323
:10153000812C912CA12CB12CC12CD12CE12CF12C83
:1015400000E010E020E030E040E050E06FEF70E0BD
:101550000E94BC098881D3019C91892788830F90C0
:101560000F900F900F9088EA91E0DF91CF911F913B
:101570000F91FF90EF90DF90CF90BF90AF909F9032
:101580008F907F906F90089520E2FB01A6E8B1E074
:1015900001900D922A95E1F726E631E040E450E013
:1015A000B9010E94D80B8FEF8093A7011092A6017A
:1015B000089520E2E6E6F1E0DF011D922A95E9F7C1
:1015C0000C94C40A20E2E6E6F1E0DC0118960190F2
:1015D0000D922A95E1F71092A70166E671E00E944C
:1015E000740A1092A6010895CF93DF93EC018091C5
:1015F000A601811114C08091A7018F3F19F4CE017B
:101600000E94E20A8091A7018F5F8093A70166E89C
:1016100071E0CE010E94740A80E28093A601E091FD
:10162000A601E150E093A601F0E0EA59FE4F80A147
:10163000DF91CF9108952F923F924F925F926F92D8
:101640007F928F929F92AF92BF92CF92DF92EF9252
:10165000FF920F931F93CF93DF9300D01F92CDB7CC
:10166000DEB73C017B836A83342E29014701580190
:101670002C2CD9822FE12417B0F0C42ED12C8C0150
:10168000085D1F4FA601C8010E946A1440E250E0A5
:101690004C195D09C601889660E070E0860D971DC3
:1016A0000E94731402C00A811B81C501AA27BB27AF
:1016B000E981EF932F921F930F935C01C12CD12CE2
:1016C000E12CF12C00E010E020E030E040E050E0C0
:1016D000B201C3010E94BC099A81A22DB9810F9069
:1016E0000F900F900F90E92FFB818E2F891B831590
:1016F00028F421918C9182278D93F7CF8A819B8149
:10170000830D911D0F900F900F90DF91CF911F913E
:101710000F91FF90EF90DF90CF90BF90AF909F9090
:101720008F907F906F905F904F903F902F90089593
:1017300040E250E060E770E086EB91E00C946114C9
:10174000CF92DF92EF92FF920F931F93CF93DF938D
:10175000EC0140E250E060E770E008960E946114FE
:101760008FE1E82EF12CFE01EE0DFF1D90A59111E9
:1017700002C08150F6CF8FEFE81AF80A0027F7FC75
:101780000095102FBE01685D7F4F96EBC92E91E04A
:10179000D92E20E038EC40E2CE010E941B0BDF91F5
:1017A000CF911F910F91FF90EF90DF90CF90089510
:1017B0002F923F924F925F926F927F928F929F9261
:1017C000AF92BF92CF92DF92EF92FF920F931F934F
:1017D000CF93DF93EC013A01190180E2E6EBF1E0EF
:1017E000DE01189601900D928A95E1F7812C912CDB
:1017F000540130EBCE0108962C01740180E2880E72
:10180000911CA11CB11C91E2691671047CF0232F7C
:1018100030E062018501740140E2CE010E941B0BA1
:10182000BC0190E2691A710830E8E7CFE60CF71CBA
:101830000027F7FC0095102F3064620120E0462D50
:10184000CE010E941B0B610118E0E12EF12C00E09B
:1018500010E020E03FEF40E060E070E0CE010E9449
:101860001B0BDF91CF911F910F91FF90EF90DF90B5
:10187000CF90BF90AF909F908F907F906F905F9030
:101880004F903F902F900895DC011D921D921D9264
:101890001C92139780E814968C93149780E2E6EBE1
:1018A000F1E0189601900D928A95E1F70895CF9294
:1018B000DF92EF92FF920F931F93CF93DF93EC0190
:1018C0003C81E880F9800A811B8180E2E80EF11CEE
:1018D000011D111DE882F9820A831B836E0188E0D5
:1018E000C80ED11C306320E040E2CE010E941B0BE9
:1018F0001C82DF91CF911F910F91FF90EF90DF90AD
:10190000CF900895AF92BF92CF92DF92EF92FF9265
:101910000F931F93CF93DF935C01E901FC013481A6
:10192000E080F18002811381E40EF11C011D111D84
:10193000E082F182028313836C01F8E0CF0ED11CA8
:10194000306720E00E941B0B6E0118E0E12EF12CA5
:1019500000E010E020E03FEF40E060E070E0C50113
:101960000E941B0BDF91CF911F910F91FF90EF9081
:10197000DF90CF90BF90AF9008954AE00C949C0DFB
:10198000CF93DF9300D000D0CDB7DEB7FC018081CC
:10199000898384818A8380858B8384858C8370E0AE
:1019A000AA27BB27A61BB70BA370BB2781E090E03B
:1019B0008C0F9D1FA80FB91F8C918083A5E0B0E00C
:1019C000A61BB70BA370BB2781E090E08C0F9D1F77
:1019D000A80FB91F8C918483A6E0B0E0A61BB70BBB
:1019E000A370BB2781E090E08C0F9D1FA80FB91F4B
:1019F0008C918087DB01A095B095A370BB2781E017
:101A000090E08C0F9D1FA80FB91F8C9184870F90B9
:101A10000F900F900F90DF91CF9108955F926F928A
:101A20007F928F929F92AF92BF92CF92DF92EF926E
:101A3000FF920F931F93CF93DF93962E96949694D5
:101A40007C0123E0E20EF11CEC018C010E5F1F4FC4
:101A50006C018FEFC81AD80A812C891409F45CC074
:101A6000F801A080F7018081A826B880F601808166
:101A7000B8266B2D6A254BE189E00E94670A682E23
:101A80006881F801808168274BE184E00E94670A41
:101A9000782E7624F6016081F701808168274BE17A
:101AA00084E00E94670A6826F701508068816525F6
:101AB0004BE182E00E94670A85258625F701808335
:101AC000F6015080F801608165254BE182E00E94BB
:101AD000670A85258625F6018083F80160804BE141
:101AE0006A2D82E00E94670A86258725F801808397
:101AF000A8804BE16B2D82E00E94670A8A2587252A
:101B000088838394F4E0EF0EF11C24960C5F1F4F42
:101B100024E0C20ED11CA1CFDF91CF911F910F9174
:101B2000FF90EF90DF90CF90BF90AF909F908F90FD
:101B30007F906F905F9008959F92AF92BF92CF92E7
:101B4000DF92EF92FF920F931F93CF93DF93EC01FD
:101B50008B01942EDB0180E1489FA00DB11D112463
:101B6000FE0180E12D919081922791938150D1F7D0
:101B70007E018FEFE81AF80A61E0C7010E94C00CED
:101B80006E0182E0C80ED11C62E0C6010E94C00C4A
:101B90005E0183E0A80EB11C63E0C5010E94C00C89
:101BA000DE0180E0EC91F0E0E057FF4FE491ED932F
:101BB0008F5F8031B9F781E0891560F59A94D8017B
:101BC00080E1989EA00DB11D1124FE0180E02D91B1
:101BD0009081922791938F5F8031C9F760E1CE01A8
:101BE0000E940E0D61E0C7010E94C00C62E0C601B8
:101BF0000E94C00C63E0C5010E94C00CDE0180E0C1
:101C0000EC91F0E0E057FF4FE491ED938F5F80316E
:101C1000B9F7D1CFF80180E021919881922799936B
:101C20008F5F8031C9F7DF91CF911F910F91FF90A6
:101C3000EF90DF90CF90BF90AF909F9008958F92DC
:101C40009F92AF92BF92CF92DF92EF92FF920F934B
:101C50001F93CF93DF93EA018B0135E0169507952B
:101C60003A95E1F7D02E7801FF249701295F3F4F85
:101C7000C22ECC0CCC0CAB0163E0569547956A950F
:101C8000E1F7BC01CE010E946A14902E990CA02E9F
:101C900060E070E0B12CF62FED2DE60FEC1508F0AA
:101CA0006EC08E2F90E0AC014150504C440F551F38
:101CB000440F551F4C0F5D1FDA010D911D912D91A1
:101CC0003C91EA1501F1B8E0DB1240C0E770E43066
:101CD00009F03CC0E02FF0E0E656FE4FE4910E2FF5
:101CE000E12FF0E0E656FE4FE4911E2FE22FF0E0E8
:101CF000E656FE4FE4912E2FE32FF0E0E656FE4F1E
:101D0000E4913E2F23C0AF2EA90CB02F832EE12FDC
:101D1000F0E0E656FE4FA491E22FF0E0E656FE4FCB
:101D2000E4911E2FE82DF0E0E656FE4FE4912E2FB1
:101D3000EB2FF0E0E656FE4FE4913E2FEB2DF0E066
:101D4000E057FE4FE4910E2F0A27B394FC01EE19E1
:101D5000FF09EE0FFF1FEE0FFF1FEC0FFD1F80812D
:101D60009181A281B38180279127A227B327FA010D
:101D700084839583A683B7836F5F7F4F8CCFDF917A
:101D8000CF911F910F91FF90EF90DF90CF90BF9078
:101D9000AF909F908F900895AB0160E870E00C9435
:101DA0001F0E1F920F920FB60F9211248F939F93C5
:101DB0008091AB01811123C01E9921C08091AC019B
:101DC00081111DC0809181008160809381001092FB
:101DD0008500109284001092AB011092AA0186EB4C
:101DE00091E09093890080938800809168008D7FB6
:101DF0008093680080916C008F7B80936C009F9132
:101E00008F910F900FBE0F901F9018951F920F92F9
:101E10000FB60F9211242F933F934F935F936F93BD
:101E20007F938F939F93AF93BF93EF93FF93809193
:101E3000AC01882321F0813009F48EC098C08091D4
:101E4000AB01811106C084E791E0909389008093F3
:101E500088008091AB018830A8F51E9B02C081E00C
:101E600001C08FEF1E9B02C021E001C02FEF820F47
:101E70001E9B02C021E001C02FEF280F1E9B02C055
:101E800081E001C08FEF820F1E9B02C091E001C074
:101E90009FEF3091AA012091AB0141E0420F4093A6
:101EA000AB01482F490F81E090E0141614F080E058
:101EB00090E0022E01C0880F0A94EAF7832B8093EA
:101EC000AA0155C08091AB01883009F050C01E9B1B
:101ED00002C081E001C08FEF1E9B02C041E001C043
:101EE0004FEF840F1E9B02C041E001C04FEF480F2F
:101EF0001E9B02C081E001C08FEF480F1E9B02C0F5
:101F000091E001C09FEF8091AA01082E8295802563
:101F1000082E869586958025940F41E050E019168D
:101F200014F040E050E08F5F81FB222720F930E081
:101F300081E04217530709F080E061E171E00E94FF
:101F4000C71381E08093A9011092AB0180918100B9
:101F50008E7F809381000BC08091A801882311F0AF
:101F6000269802C0269A2E9881E080930401FF9162
:101F7000EF91BF91AF919F918F917F916F915F9101
:101F80004F913F912F910F900FBE0F901F9018957A
:101F90001092AC011092A90126982E9AE8E6F0E082
:101FA000808182608083ECE6F0E0808180648083C1
:101FB000089581E08093AC01E8E6F0E080818D7FB8
:101FC0008083ECE6F0E080818F7B8083269A089501
:101FD00026982E9AE8E6F0E0808182608083ECE625
:101FE000F0E0808180648083E1E8F0E080818860B7
:101FF000808384E791E09093890080938800EFE6E6
:10200000F0E080818260808308959091040199239B
:10201000E1F3109204018093A8010895DF92EF92FA
:10202000FF920F931F93CF93DF93E82E0E94D90F57
:10203000109285001092840090918100916090939D
:10204000810081E00E94051081E00E94051081E07E
:102050000E94051080E00E940510C8E0D0E001E079
:1020600010E0DD24D394FF24F394802F8E2109F413
:10207000F12C8F2D0E940510F1101D25000F2197C6
:10208000209789F7812F81700E94051080910401AB
:102090008823E1F38DE590E00197F1F780918100CD
:1020A0008E7F80938100DF91CF911F910F91FF90E0
:1020B000EF90DF900C94C80F0F931F93CF93DF9393
:1020C0001F92CDB7DEB78C01680F601741F0F801A1
:1020D00081918F0169830E940E106981F6CF0F9064
:1020E000DF91CF911F910F9108950E94C80F8091A9
:1020F000A9018823E1F38091AA0108951F920F920C
:102100000FB60F9211248F939F93EF93FF938091BB
:10211000AD01811112C08091FF0196B5E82FF0E06A
:10212000E552FE4F90838F5F8093FF01803228F04D
:1021300081E08093AD011092FF01FF91EF919F919B
:102140008F910F900FBE0F901F9018958091AD0149
:10215000882309F455C080910002843008F050C0F3
:10216000E091000224E0E29FF0011124EF5FFD4FB7
:102170002081318142815381EBEDF1E08191280F83
:10218000311D411D511DA1E0B4E00E94D5139B01FA
:10219000AC01A6E05695479537952795AA95D1F7B6
:1021A000262737274827592781E0EB3FF80731F7E3
:1021B000A9E0B0E00E94D5139B01AC01EBE056957D
:1021C000479537952795EA95D1F72627372748274A
:1021D0005927A1E0B0E80E94D513E091000224E065
:1021E000E29FF0011124EF5FFD4F608371838283D2
:1021F00093831092AD01809100028F5F8093000263
:1022000008951092FF011092DA011092000214BE9C
:10221000E0E6F0E080818861808380E4808316BC02
:1022200085B5816085BD089585B58E7F85BD14BE59
:10223000E0E6F0E080818061808310820895AF92B3
:10224000BF92CF92DF92EF92FF920F931F93CF93A3
:10225000DF938091AE01811141C00E94A610809150
:1022600000028430D8F100E010E0C0E0D0E0F801D6
:10227000EE0FFF1FEE0FFF1FEF5FFD4FC080D180FD
:10228000E280F3806F2D772788279927CE010E945F
:1022900076165E016E2DCE0101960E9476166D2D8A
:1022A000CE0102960E94761624966C2DC5010396E7
:1022B0000E9476160F5F1F4FC031D105C1F681E035
:1022C0008093AE01DF91CF911F910F91FF90EF901E
:1022D000DF90CF90BF90AF900C941411DF91CF910D
:1022E0001F910F91FF90EF90DF90CF90BF90AF9034
:1022F00008951F920F920FB60F9211242F933F93C0
:102300004F935F936F937F938F939F93AF93BF93FD
:10231000EF93FF93589A0E94511487BD5898FF91EC
:10232000EF91BF91AF919F918F917F916F915F914D
:102330004F913F912F910F900FBE0F901F901895C6
:10234000089585B58E7F85BD08958FEF81B9249A54
:102350002C980E9401110E94A3130E94F9120E945E
:10236000E80F6DE572E08DE391E00E94CC0E789469
:102370000E94B3120E948112FDCF7F928F929F9292
:10238000AF92BF92CF92DF92EF92FF920F931F9383
:10239000CF93DF93CDB7DEB7E2970FB6F894DEBFE9
:1023A0000FBECDBF6C0100E010E0862E912C84E1C1
:1023B000A82E81E0B82ECE0101967C0108151905E2
:1023C000FCF4F60171906F010E9475107816A9F067
:1023D0001F930F931F927F921F928F93BF92AF9282
:1023E000FF92EF920E947A14B70180E00E94C71317
:1023F0000FB6F894DEBF0FBECDBF0F5F1F4FDECF0D
:10240000E2960FB6F894DEBF0FBECDBFDF91CF913D
:102410001F910F91FF90EF90DF90CF90BF90AF9002
:102420009F908F907F900895EF92FF920F931F934C
:10243000CF93DF9300D000D01F92CDB7DEB77C01E1
:1024400025E0E7E0F1E0DE01119601900D922A957A
:10245000E1F765E0CE0101960E94BD118701E12CF4
:10246000F12C8FEE0E940E100E947510F8018193DE
:102470008F01FFEFEF1AFF0A80E1E816F10489F7F8
:102480000F900F900F900F900F90DF91CF911F91B1
:102490000F91FF90EF9008950F931F93CF93DF93C9
:1024A000CDB7DEB727970FB6F894DEBF0FBECDBF0E
:1024B0008C0185E0ECE0F1E0DE01119601900D92D7
:1024C0008A95E1F765E0CE0101960E94BD1180EC8E
:1024D0000E940E1060E1C8010E945C1080E98E83AA
:1024E0001F8262E0CE0106960E945C1027960FB60E
:1024F000F894DEBF0FBECDBFDF91CF911F910F913A
:102500000895CF93DF93CDB7DEB762970FB6F894F7
:10251000DEBF0FBECDBFCE0101960E9414122C9AD1
:102520006DE572E0CE0101960E94BD0C2C980E94D0
:102530001F1180E094E00E94361381E6898B80E1D0
:102540008A8B62E0CE0141960E945C10CE0101961A
:102550000E944C1262960FB6F894DEBF0FBECDBF3C
:10256000DF91CF910895CF93DF9300D000D0CDB706
:10257000DEB78BE3898380E98A8381E18B831C82C8
:1025800064E0CE0101960E945C100F900F900F90B6
:102590000F90DF91CF9108958091B10191E0980F54
:1025A0009093B101803241F4809105019091060130
:1025B0000E94E20A1092B1018091050190910601FA
:1025C0000C94F40A0F931F93CF93DF93EC0180E0F8
:1025D00090E08C010F5F1F4F0E946E1689930031AF
:1025E000110511F0C801F5CFDF91CF911F910F9127
:1025F00008951F93CF93DF93CDB7DEB760970FB6E3
:10260000F894DEBF0FBECDBF1092B5011092B40199
:102610001092B3011092B201CE0101960E94E21213
:102620000E94980BBE016F5F7F4F809105019091D2
:1026300006010E94D90A0E94CC12182F0E94CC12C7
:102640001F70682F812F90E00E94761660960FB65B
:10265000F894DEBF0FBECDBFDF91CF911F910895DB
:1026600090E00C946E1690E00C947616EF92FF9228
:102670000F931F93CF93DF93F894EC0101E014E0E4
:10268000209741F1E090B201F090B3012197C7018A
:102690000196B8010E94E0132091B4013091B50178
:1026A00082179307B9F080910501909106010E946D
:1026B000CC12F701E35FFC4F80838091B2019091CF
:1026C000B3010196B8010E94E0139093B301809387
:1026D000B201D6CF7894DF91CF911F910F91FF90E7
:1026E000EF9008958091B4019091B5012091B201CD
:1026F0003091B3018217930779F0FC01E35FFC4F3F
:102700002081019661E074E00E94E0139093B5018E
:102710008093B401822F08956DE471E081E00E94FE
:10272000C71380E008958091B2019091B301209188
:10273000B4013091B5018217930710F48F5F9B4F5E
:10274000821B930B08951092C5001092C400E0EC18
:10275000F0E0808182608083E1ECF0E0808188603D
:102760008083509A589808959091C00095FFFCCFAF
:102770008093C6000895CF93DF93EC01899188235D
:1027800019F00E94B413FACFDF91CF91089581110F
:102790000BC082B1811102C081E002C082B18F5FA3
:1027A00082B9CB010C94BB1308950E94F413A59F2A
:1027B000900DB49F900DA49F800D911D112408953C
:1027C000AA1BBB1B51E107C0AA1FBB1FA617B70757
:1027D00010F0A61BB70B881F991F5A95A9F7809573
:1027E0009095BC01CD010895A29FB001B39FC00197
:1027F000A39F700D811D1124911DB29F700D811D2D
:102800001124911D08958F929F92AF92BF92CF9203
:10281000DF92EF92FF92CF93DF93EC016881798191
:102820008A819B81611571058105910521F464E21E
:1028300079ED8BE597E02DE133EF41E050E00E9428
:10284000321749015A019B01AC01A7EAB1E40E9489
:10285000D5136B017C01ACEEB4EFA50194010E948D
:102860002D17C60ED71EE81EF91EF7FE06C081E022
:10287000C81AD108E10880E8F80AC882D982EA8239
:10288000FB82C6019F77DF91CF91FF90EF90DF90A1
:10289000CF90BF90AF909F908F9008950E940314A7
:1028A000089580E091E00E9403140895A0E0B0E054
:1028B0008093000190930101A0930201B093030162
:1028C0000895FB01DC0102C005900D92415050407B
:1028D000D8F70895FB01DC0102C001900D92415030
:1028E0005040D8F70895DC0101C06D93415050402D
:1028F000E0F70895AEE0B0E0E0E8F4E10C945F1793
:102900000D891E8986E08C831A8309838FEF9FE7E8
:102910009E838D83AE01475E5F4F6F89788DCE01B8
:1029200001960E949C14EF81F885E00FF11F108240
:102930002E96E4E00C947B17ACE0B0E0E2EAF4E120
:102940000C9451177C016B018A01FC0117821682DD
:10295000838181FFBDC1CE0101964C01F7019381B6
:10296000F60193FD859193FF81916F01882309F40E
:10297000ABC1853239F493FD859193FF81916F014D
:10298000853229F4B70190E00E949A16E7CF512CC6
:10299000312C20E02032A0F48B3269F030F4803208
:1029A00059F0833269F420612CC08D3239F08033C4
:1029B00039F4216026C02260246023C0286021C031
:1029C00027FD27C030ED380F3A3078F426FF06C0D7
:1029D000FAE05F9E300D1124532E13C08AE0389E1A
:1029E000300D1124332E20620CC08E3221F426FDCE
:1029F0006BC1206406C08C3611F4206802C0883692
:102A000041F4F60193FD859193FF81916F0181114E
:102A1000C1CF982F9F7D9554933028F40C5F1F4FA2
:102A2000FFE3F9830DC0833631F0833771F08335CE
:102A300009F05BC022C0F801808189830E5F1F4FBF
:102A400044244394512C540115C03801F2E06F0E18
:102A5000711CF801A080B18026FF03C0652D70E0D5
:102A600002C06FEF7FEFC5012C870E948F162C01EB
:102A700083012C852F77222E17C03801F2E06F0ECC
:102A8000711CF801A080B18026FF03C0652D70E0A5
:102A900002C06FEF7FEFC5012C870E9484162C01C6
:102AA0002C852068222E830123FC1BC0832D90E0FF
:102AB00048165906B0F4B70180E290E00E949A16D9
:102AC0003A94F4CFF50127FC859127FE81915F01AF
:102AD000B70190E00E949A1631103A94F1E04F1A33
:102AE00051084114510471F7E5C0843611F089365C
:102AF00039F5F80127FF07C06081718182819381D8
:102B00000C5F1F4F08C060817181882777FD809519
:102B1000982F0E5F1F4F2F76B22E97FF09C090950A
:102B20008095709561957F4F8F4F9F4F2068B22E93
:102B30002AE030E0A4010E94CC16A82EA81844C0B8
:102B4000853729F42F7EB22E2AE030E025C0F22FFF
:102B5000F97FBF2E8F36C1F018F4883579F0B4C0F4
:102B6000803719F0883721F0AFC02F2F2061B22EA7
:102B7000B4FE0DC08B2D8460B82E09C024FF0AC09E
:102B80009F2F9660B92E06C028E030E005C020E1F6
:102B900030E002C020E132E0F801B7FE07C06081FA
:102BA0007181828193810C5F1F4F06C060817181AA
:102BB00080E090E00E5F1F4FA4010E94CC16A82E6B
:102BC000A818FB2DFF77BF2EB6FE0BC02B2D2E7F36
:102BD000A51450F4B4FE0AC0B2FC08C02B2D2E7E02
:102BE00005C07A2C2B2D03C07A2C01C0752C24FF34
:102BF0000DC0FE01EA0DF11D8081803311F4297EA4
:102C000009C022FF06C07394739404C0822F867893
:102C100009F0739423FD13C020FF06C05A2C7314CF
:102C200018F4530C5718732C731468F4B70180E22E
:102C300090E02C870E949A1673942C85F5CF73141C
:102C400010F4371801C0312C24FF12C0B70180E303
:102C500090E02C870E949A162C8522FF17C021FF36
:102C600003C088E590E002C088E790E0B7010CC09F
:102C7000822F867859F021FD02C080E201C08BE2EC
:102C800027FD8DE2B70190E00E949A16A51438F452
:102C9000B70180E390E00E949A165A94F7CFAA9465
:102CA000F401EA0DF11D8081B70190E00E949A16AF
:102CB000A110F5CF332009F451CEB70180E290E0A6
:102CC0000E949A163A94F6CFF7018681978102C046
:102CD0008FEF9FEF2C96E2E10C946D17F999FECFE0
:102CE00092BD81BDF89A992780B50895262FF9994C
:102CF000FECF1FBA92BD81BD20BD0FB6F894FA9ADF
:102D0000F99A0FBE01960895FC010590615070403C
:102D10000110D8F7809590958E0F9F1F0895FC01A4
:102D20006150704001900110D8F7809590958E0FFA
:102D30009F1F08950F931F93CF93DF93182F092F91
:102D4000EB018B8181FD03C08FEF9FEF20C082FFDD
:102D500010C04E815F812C813D81421753077CF466
:102D6000E881F9819F012F5F3F4F398328831083CA
:102D700006C0E885F985812F0995892B29F72E81D1
:102D80003F812F5F3F4F3F832E83812F902FDF9115
:102D9000CF911F910F910895FA01AA27283051F180
:102DA000203181F1E8946F936E7F6E5F7F4F8F4F7C
:102DB0009F4FAF4FB1E03ED0B4E03CD0670F781FDB
:102DC000891F9A1FA11D680F791F8A1F911DA11DC0
:102DD0006A0F711D811D911DA11D20D009F46894F9
:102DE0003F912AE0269F11243019305D3193DEF6A1
:102DF000CF010895462F4770405D4193B3E00FD057
:102E0000C9F7F6CF462F4F70405D4A3318F0495D41
:102E100031FD4052419302D0A9F7EACFB4E0A69524
:102E20009795879577956795BA95C9F70097610546
:102E3000710508959B01AC010A2E0694579547959C
:102E400037952795BA95C9F7620F731F841F951F91
:102E5000A01D0895B7FF0C94D5130E94D513821BB3
:102E6000930B0895052E97FB1EF400940E944917BA
:102E700057FD07D00E94881707FC03D04EF40C942E
:102E8000491750954095309521953F4F4F4F5F4FD3
:102E9000089590958095709561957F4F8F4F9F4FC6
:102EA00008952F923F924F925F926F927F928F92EE
:102EB0009F92AF92BF92CF92DF92EF92FF920F93C9
:102EC0001F93CF93DF93CDB7DEB7CA1BDB0B0FB6D3
:102ED000F894DEBF0FBECDBF09942A883988488890
:102EE0005F846E847D848C849B84AA84B984C88426
:102EF000DF80EE80FD800C811B81AA81B981CE0F1D
:102F0000D11D0FB6F894DEBF0FBECDBFED01089501
:102F1000A1E21A2EAA1BBB1BFD010DC0AA1FBB1FDD
:102F2000EE1FFF1FA217B307E407F50720F0A21B4F
:102F3000B30BE40BF50B661F771F881F991F1A94BC
:102F400069F760957095809590959B01AC01BD01E6
:082F5000CF010895F894FFCFB2
:102F580001000000011502881000001088C0000060
:102F680010575000526563656976656420253032D4
:102F78005820696E7374656164206F66202530324D
:102F88005820617420627974652025640064892161
:102F98001588B4CEE0184A1444E4DFC75872616E4D
:102FA800646F6D2062756666657220756E64657201
:062FB800666C6F7700005B
:00000001FF
