:100000000C944D010C946A010C946A010C946A01E1
:100010000C946A010C94250F0C946A010C946A01EB
:100020000C94D2100C946A010C946A010C946A012D
:100030000C946A010C945A0F0C946A010C946A0196
:100040000C94CD110C946A010C946A010C946A0111
:100050000C946A010C946A010C946A010C946A0174
:100060000C946A010C946A010C946A010C946A0164
:100070001DEFEED4A990421615CDB0B144AF7E8EDF
:10008000AE099DF62208BAA868644A365E5CF20A98
:1000900052096AD53036A538BF40A39E81F3D7FBFD
:1000A0007CE339829B2FFF87348E4344C4DEE9CB47
:1000B000547B9432A6C2233DEE4C950B42FAC34EBC
:1000C000082EA16628D924B2765BA2496D8BD12572
:1000D00072F8F66486689816D4A45CCC5D65B69216
:1000E0006C704850FDEDB9DA5E154657A78D9D84BA
:1000F00090D8AB008CBCD30AF7E45805B8B34506DA
:10010000D02C1E8FCA3F0F02C1AFBD0301138A6BF3
:100110003A9111414F67DCEA97F2CFCEF0B4E67323
:1001200096AC7422E7AD3585E2F937E81C75DF6ED1
:1001300047F11A711D29C5896FB7620EAA18BE1B37
:10014000FC563E4BC6D279209ADBC0FE78CD5AF4DD
:100150001FDDA8338807C731B11210592780EC5F23
:1001600060517FA919B54A0D2DE57A9F93C99CEF7F
:10017000A0E03B4DAE2AF5B0C8EBBB3C8353996180
:10018000172B047EBA77D626E169146355210C7DBE
:1001900001020408102040801B36637C777BF26BE1
:1001A0006FC53001672BFED7AB76CA82C97DFA597D
:1001B00047F0ADD4A2AF9CA472C0B7FD9326363FE2
:1001C000F7CC34A5E5F171D8311504C723C31896CF
:1001D000059A071280E2EB27B27509832C1A1B6E71
:1001E0005AA0523BD6B329E32F8453D100ED20FC13
:1001F000B15B6ACBBE394A4C58CFD0EFAAFB434D16
:10020000338545F9027F503C9FA851A3408F929DB2
:1002100038F5BCB6DA2110FFF3D2CD0C13EC5F97A2
:100220004417C4A77E3D645D197360814FDC222AA8
:10023000908846EEB814DE5E0BDBE0323A0A4906DF
:10024000245CC2D3AC629195E479E7C8376D8DD553
:100250004EA96C56F4EA657AAE08BA78252E1CA62B
:10026000B4C6E8DD741F4BBD8B8A703EB56648038B
:10027000F60E613557B986C11D9EE1F8981169D90E
:100280008E949B1E87E9CE5528DF8CA1890DBFE691
:10029000426841992D0FB054BB1611241FBECFEFF9
:1002A000D0E1DEBFCDBF11E0A0E0B1E0E8E2F0E3D5
:1002B00002C005900D92A637B107D9F717E0A6E75F
:1002C000B1E001C01D92AE31B107E1F70E94F91112
:1002D0000C9412180C940000EF91FF912F923F9212
:1002E0004F925F926F927F928F929F92AF92BF9246
:1002F000CF92DF92EF92FF920F931F93CF93DF93F2
:10030000DFB7D7FBF894ADB7BEB79EBF87E08DBF10
:10031000BF93AF93FF93EF935596CD91DC91689681
:100320007A906A905A904A903A902A901A900A903D
:10033000FA91EA91E093E601F093E801FE01D2918F
:10034000C291B291A291929182918093E7018FE341
:100350008DBF7F936F935F934F933F932F931F9323
:100360000F93FF92EF92DF92CF92BF92AF929F9244
:100370008F92082519252A253B254C255D256E25BC
:100380007F25709681909190A190B190C190D1906D
:10039000E190F19087E48DBF7F936F935F934F93CC
:1003A0003F932F931F930F9305E515E59801A8013F
:1003B000B80187E08DBF8F9108278F9118278F9103
:1003C00028278F9138278F9148278F9158278F9111
:1003D00068278F9178278F9108278F9118278F9101
:1003E00028278F9138278F9148278F9158278F91F1
:1003F00068278F9178278F9108278F9118278F91E1
:1004000028278F9138278F9148278F9158278F91D0
:1004100068278F9178278F9108278F9118278F91C0
:1004200028278F9138278F9148278F9158278F91B0
:1004300068278F91782778978FE28DBF82917F937D
:10044000782F82916F93682F82915F93582F8291BA
:100450004F93482F82913F93382F82912F93282FCB
:1004600082911F93182F82910F93082FE091E6013C
:100470008091E701F3E0FDBF08950091E801E0936A
:10048000E601F093E8018093E701F5E0FDBFEF910D
:10049000FF9177968191F081E82F8091E701019398
:1004A000119321933193419351936193719381936C
:1004B0009193A193B193C193D193C091E601D0914F
:1004C000E801C193D193019211922192319241920C
:1004D00051926192719281929192A192B192C19244
:1004E000D192E192F19205E00DBFAF91BF91ADBF06
:1004F000BEBFDF91CF911F910F91FF90EF90DF90E2
:10050000CF90BF90AF909F908F907F906F905F90B3
:100510004F903F902F9011240EF478940895F0910D
:10052000E701FDBFFF910F1BFF911F0BFF912F0BE9
:10053000FF913F0BFF914F0BFF915F0BFF916F0BF3
:10054000FF917F0BF091E8010093E8010DB70F32A6
:1005500011F407E00DBF0F91801B0F91900B0F91CD
:10056000A00B0F91B00B0F91C00B0F91D00B0F91FF
:10057000E00B0F91F00B0DB70F3211F407E00DBF38
:100580000F91001A0F91100A0F91200A0F91300A53
:100590000F91400A0F91500A0F91600A0F91700A53
:1005A0000DB70F3211F407E00DBF0F91801A0F91B4
:1005B000900A0F91A00A0F91B00A0F91C00A0F91F3
:1005C000D00A0F91E00A0F91F00A0DB70F3209F42B
:1005D00007E00093E7010091E9010DBF0F91801B37
:1005E0000F91900B0F91A00B0F91B00B0F91C00BBF
:1005F0000F91D00B0F91E00B0F91F00B0DB707345B
:1006000011F40FE20DBF0F91001A0F91100A0F9114
:10061000200A0F91300A0F91400A0F91500A0F9152
:10062000600A0F91700A0DB7073409F40FE20093C6
:10063000E9010091E6010A950093E601801A00277E
:10064000900AA00AB00AC00AD00AE00AF00A009193
:10065000E8010EF4789480269126A226B326C426BB
:10066000D526E626F7260C191D092E093F0948094B
:1006700059096A097B0980259125A225B325C4253E
:10068000D525E625F7250C1A1D0A2E0A3F0A480A29
:10069000590A6A0A7B0AC027D127E227F327842751
:1006A0009527A627B727B0FBA69597958795F79529
:1006B000E795D795C795B795A7F9B0FBA6959795F8
:1006C0008795F795E795D795C795B795A7F90B1B2C
:1006D0001C0B2D0B3E0B4F0B580B690B7A0BC024D8
:1006E000D124E224F32484249524A624B724E7FA11
:1006F000FF0C881C991CAA1CBB1CCC1CDD1CEE1C0E
:10070000F0F8E7FAFF0C881C991CAA1CBB1CCC1C37
:10071000DD1CEE1CF0F80F18180829083A084B08E1
:100720005C086D087E08F02681269226A326B42652
:10073000C526D626E726C7FADD0CEE1CFF1C881C52
:10074000991CAA1CBB1CCC1CD0F8C7FADD0CEE1CF3
:10075000FF1C881C991CAA1CBB1CCC1CD0F80D19B2
:100760001E092F09380949095A096B097C09B02566
:10077000C125D225E325F42585259625A725C0FB8F
:10078000B695A79597958795F795E795D795C795CA
:10079000B7F9C0FBB695A79597958795F795E79517
:1007A000D795C795B7F9C0FBB695A7959795879547
:1007B000F795E795D795C795B7F9C0FBB695A79577
:1007C00097958795F795E795D795C795B7F90C1A3B
:1007D0001D0A2E0A3F0A480A590A6A0A7B0AC027DC
:1007E000D127E227F32784279527A627B727F0FBF1
:1007F000E695D795C795B795A79597958795F7955A
:10080000E7F90F1B180B290B3A0B4B0B5C0B6D0B0D
:100810007E0BD024E124F22483249424A524B6243E
:10082000C72490FA8694F794E794D794C794B79422
:10083000A794979487F809181A082B083C084D08C4
:100840005E086F087808F093E801FFB7F7FBF894AB
:10085000F091E701FDBFFF910F1BFF911F0BFF916F
:100860002F0BFF913F0BFF914F0BFF915F0BFF9100
:100870006F0BFF917F0BF091E8010093E8010DB73A
:100880000F3211F407E00DBF0F91F01B0F91800B99
:100890000F91900B0F91A00B0F91B00B0F91C00B0C
:1008A0000F91D00B0F91E00B0DB70F3211F407E051
:1008B0000DBF0F91001A0F91100A0F91200A0F918E
:1008C000300A0F91400A0F91500A0F91600A0F9160
:1008D000700A0DB70F3211F407E00DBF0F91901A97
:1008E0000F91A00A0F91B00A0F91C00A0F91D00A80
:1008F0000F91E00A0F91F00A0F91800A0DB70F32A5
:1009000009F407E00093E7010091E9010DBF0F91A1
:10091000F01B0F91800B0F91900B0F91A00B0F917B
:10092000B00B0F91C00B0F91D00B0F91E00B0DB7D7
:10093000073411F40FE20DBF0F91001A0F91100A46
:100940000F91200A0F91300A0F91400A0F91500A1F
:100950000F91600A0F91700A0DB7073409F40FE286
:100960000093E9010091E6010A950093E601901ACF
:100970000027A00AB00AC00AD00AE00AF00A800ADA
:100980000091E8010EF478949026A126B226C326A1
:10099000D426E526F626872697FAAA0CBB1CCC1C83
:1009A000DD1CEE1CFF1C881C991CA0F897FAAA0CF1
:1009B000BB1CCC1CDD1CEE1CFF1C881C991CA0F869
:1009C00097FAAA0CBB1CCC1CDD1CEE1CFF1C881C5F
:1009D000991CA0F80A191B092C093D094E095F0949
:1009E00068097909F02581259225A325B425C52517
:1009F000D625E725B7FBCC0FDD1FEE1FFF1F881F95
:100A0000991FAA1FBB1FC0F9B7FBCC0FDD1FEE1F3C
:100A1000FF1F881F991FAA1FBB1FC0F9B7FBCC0F70
:100A2000DD1FEE1FFF1F881F991FAA1FBB1FC0F9E4
:100A30000C1A1D0A2E0A3F0A480A590A6A0A7B0A3A
:100A4000C027D127E227F32784279527A627B72792
:100A5000E7FBFF0F881F991FAA1FBB1FCC1FDD1FBD
:100A6000EE1FF0F90F1B180B290B3A0B4B0B5C0B0D
:100A70006D0B7E0BA024B124C224D324E424F524DE
:100A8000862497240F18180829083A084B085C0890
:100A90006D087E08F02681269226A326B426C52658
:100AA000D626E726D7FAEE0CFF1C881C991CAA1C38
:100AB000BB1CCC1CDD1CE0F8D7FAEE0CFF1C881C1C
:100AC000991CAA1CBB1CCC1CDD1CE0F8D7FAEE0C50
:100AD000FF1C881C991CAA1CBB1CCC1CDD1CE0F84C
:100AE000D7FAEE0CFF1C881C991CAA1CBB1CCC1C42
:100AF000DD1CE0F80E191F09280939094A095B09AC
:100B00006C097D09F02581259225A325B425C525ED
:100B1000D625E725E0FBD695C795B795A795979578
:100B20008795F795E795D7F90E1A1F0A280A390A0B
:100B30004A0A5B0A6C0A7D0AE027F127822793277D
:100B4000A427B527C627D727F7FB880F991FAA1F09
:100B5000BB1FCC1FDD1FEE1FFF1F80F9F7FB880FA7
:100B6000991FAA1FBB1FCC1FDD1FEE1FFF1F80F99F
:100B7000081B190B2A0B3B0B4C0B5D0B6E0B7F0BF1
:100B8000E024F12482249324A424B524C624D72469
:100B9000081819082A083B084C085D086E087F08E9
:100BA000F093E801FFB7F7FBF894F3E0FDBF089579
:100BB0000E946C01F3E1F093E601FFE1F093E7019D
:100BC000FFE2F093E9010E948F020E948F020E94CF
:100BD0008F020E948F020E948F020E948F020E9449
:100BE0008F020E948F020E948F02F091E701FDBFE9
:100BF000FF910F1BFF911F0BFF912F0BFF913F0BDD
:100C0000FF914F0BFF915F0BFF916F0BFF917F0BDC
:100C1000F091E8010093E8010DB70F3211F407E0FD
:100C20000DBF0F91801B0F91900B0F91A00B0F9197
:100C3000B00B0F91C00B0F91D00B0F91E00B0F91E8
:100C4000F00B0DB70F3211F407E00DBF0F91001A32
:100C50000F91100A0F91200A0F91300A0F91400A4C
:100C60000F91500A0F91600A0F91700A0DB70F3261
:100C700011F407E00DBF0F91801A0F91900A0F91A8
:100C8000A00A0F91B00A0F91C00A0F91D00A0F91DC
:100C9000E00A0F91F00A0091E9010DBF0F91801B4E
:100CA0000F91900B0F91A00B0F91B00B0F91C00BF8
:100CB0000F91D00B0F91E00B0F91F00B0DB7073494
:100CC00011F40FE20DBF0F91001A0F91100A0F914E
:100CD000200A0F91300A0F91400A0F91500A0F918C
:100CE000600A0F91700A0091E6010A95801A0027A8
:100CF000900AA00AB00AC00AD00AE00AF00A0C94CE
:100D00003D02F091E701FDBFFF910F0FFF911F1F03
:100D1000FF912F1FFF913F1FFF914F1FFF915F1FFB
:100D2000FF916F1FFF917F1FF091E8010093E80191
:100D30000DB70F3211F407E00DBF0093E7010F91DB
:100D4000800F0F91901F0F91A01F0F91B01F0F9157
:100D5000C01F0F91D01F0F91E01F0F91F01F0DB713
:100D60000F3211F407E00DBF0F91000E0F91101E0E
:100D70000F91201E0F91301E0F91401E0F91501E9B
:100D80000F91601E0F91701E0DB70F3211F407E026
:100D90000DBF0F91800E0F91901E0F91A01E0F910D
:100DA000B01E0F91C01E0F91D01E0F91E01E0F912B
:100DB000F01E0091E9010DBF0F91800F0F91901F60
:100DC0000F91A01F0F91B01F0F91C01F0F91D01F47
:100DD0000F91E01F0F91F01F0DB7073411F40FE2D0
:100DE0000DBF0093E9010F91000E0F91101E0F919E
:100DF000201E0F91301E0F91401E0F91501E0F911B
:100E0000601E0F91701E0091E60103950093E601AC
:100E1000800E0027901EA01EB01EC01ED01EE01E19
:100E2000F01E03E00DBF0091E8010EF47894080F66
:100E3000191F2A1F3B1F4C1F5D1F6E1F7F1FE0FBEA
:100E4000D695C795B795A79597958795F795E79503
:100E5000D7F9E0FBD695C795B795A7959795879550
:100E6000F795E795D7F9E027F12782279327A4275D
:100E7000B527C627D727080C191C2A1C3B1C4C1C5D
:100E80005D1C6E1C7F1CE024F12482249324A42486
:100E9000B524C624D7240E0D1F1D281D391D4A1D3B
:100EA0005B1D6C1D7D1DF0FAE694D794C794B79432
:100EB000A79497948794F794E7F8F0FAE694D79478
:100EC000C794B794A79497948794F794E7F8F0FAA7
:100ED000E694D794C794B794A79497948794F7947B
:100EE000E7F8F0FAE694D794C794B794A794979448
:100EF0008794F794E7F8F02681269226A326B42655
:100F0000C526D626E7260E0E1F1E281E391E4A1E8F
:100F10005B1E6C1E7D1EE7FBFF0F881F991FAA1F1B
:100F2000BB1FCC1FDD1FEE1FF0F9F0258125922598
:100F3000A325B425C525D625E7250F0F181F291F82
:100F40003A1F4B1F5C1F6D1F7E1FC0FBB695A795F8
:100F500097958795F795E795D795C795B7F9C027E2
:100F6000D127E227F32784279527A627B7270F0C39
:100F7000181C291C3A1C4B1C5C1C6D1C7E1CA024DC
:100F8000B124C224D324E424F524862497240A0D12
:100F90001B1D2C1D3D1D4E1D5F1D681D791D90FAEA
:100FA0008694F794E794D794C794B794A7949794AA
:100FB00087F890FA8694F794E794D794C794B794F7
:100FC000A794979487F890FA8694F794E794D79427
:100FD000C794B794A794979487F89026A126B22631
:100FE000C326D426E526F62687260C0E1D1E2E1EA9
:100FF0003F1E481E591E6A1E7B1EF0FBE695D795C4
:10100000C795B795A79597958795F795E7F9F0FB5D
:10101000E695D795C795B795A79597958795F79531
:10102000E7F9F0FBE695D795C795B795A7959795FE
:101030008795F795E7F9F02581259225A325B42515
:10104000C525D625E725F093E801FFB7F7FBF8940F
:10105000F091E701FDBFFF910F0FFF911F1FFF915F
:101060002F1FFF913F1FFF914F1FFF915F1FFF91A8
:101070006F1FFF917F1FF091E8010093E8010DB70A
:101080000F3211F407E00DBF0093E7010F91F00F4D
:101090000F91801F0F91901F0F91A01F0F91B01FF4
:1010A0000F91C01F0F91D01F0F91E01F0DB70F328E
:1010B00011F407E00DBF0F91000E0F91101E0F915C
:1010C000201E0F91301E0F91401E0F91501E0F9148
:1010D000601E0F91701E0DB70F3211F407E00DBFA7
:1010E0000F91900E0F91A01E0F91B01E0F91C01E78
:1010F0000F91D01E0F91E01E0F91F01E0F91801ED8
:101100000091E9010DBF0F91F00F0F91801F0F911A
:10111000901F0F91A01F0F91B01F0F91C01F0F9133
:10112000D01F0F91E01F0DB7073411F40FE20DBF70
:101130000093E9010F91000E0F91101E0F91201ED8
:101140000F91301E0F91401E0F91501E0F91601E87
:101150000F91701E0091E60103950093E601900E39
:101160000027A01EB01EC01ED01EE01EF01E801E56
:1011700003E00DBF0091E8010EF478940F0F181FE3
:10118000291F3A1F4B1F5C1F6D1F7E1FB7FBCC0F23
:10119000DD1FEE1FFF1F881F991FAA1FBB1FC0F96D
:1011A000C027D127E227F32784279527A627B7272B
:1011B000090C1A1C2B1C3C1C4D1C5E1C6F1C781C43
:1011C000C7FADD0CEE1CFF1C881C991CAA1CBB1C5A
:1011D000CC1CD0F8D024E124F22483249424A52428
:1011E000B624C7240D0D1E1D2F1D381D491D5A1D67
:1011F0006B1D7C1DF0FAE694D794C794B794A7941E
:1012000097948794F794E7F8F0FAE694D794C79404
:10121000B794A79497948794F794E7F8F0268126DB
:101220009226A326B426C526D626E7260C0E1D1E1A
:101230002E1E3F1E481E591E6A1E7B1EA7FBBB0F9B
:10124000CC1FDD1FEE1FFF1F881F991FAA1FB0F9BB
:10125000A7FBBB0FCC1FDD1FEE1FFF1F881F991FB1
:10126000AA1FB0F9A7FBBB0FCC1FDD1FEE1FFF1F8E
:10127000881F991FAA1FB0F9A7FBBB0FCC1FDD1F4A
:10128000EE1FFF1F881F991FAA1FB0F9B025C125A7
:10129000D225E325F42585259625A7250B0F1C1FB0
:1012A0002D1F3E1F4F1F581F691F7A1FB7FBCC0F02
:1012B000DD1FEE1FFF1F881F991FAA1FBB1FC0F94C
:1012C000B7FBCC0FDD1FEE1FFF1F881F991FAA1F42
:1012D000BB1FC0F9C027D127E227F3278427952712
:1012E000A627B7270F0C181C291C3A1C4B1C5C1C8A
:1012F0006D1C7E1CC0FAB694A79497948794F794BB
:10130000E794D794C794B7F8C0FAB694A794979483
:101310008794F794E794D794C794B7F8C024D1245E
:10132000E224F32484249524A624B7240C0D1D1D47
:101330002E1D3F1D481D591D6A1D7B1D80269126AF
:10134000A226B326C426D526E626F7260C0E1D1E99
:101350002E1E3F1E481E591E6A1E7B1E802591258B
:10136000A225B325C425D525E625F725F093E80168
:10137000FFB7F7FBF89408950E946C01FFEFF0931C
:10138000E601F7E0F093E701FFE2F093E9010E9444
:1013900081060E9481060E9481060E9481060E94A9
:1013A00081060E9481060E9481060E9481060E9499
:1013B0008106F091E701FDBFFF910F0FFF911F1F05
:1013C000FF912F1FFF913F1FFF914F1FFF915F1F45
:1013D000FF916F1FFF917F1FF091E8010093E801DB
:1013E0000DB70F3211F407E00DBF0F91800F0F9171
:1013F000901F0F91A01F0F91B01F0F91C01F0F9151
:10140000D01F0F91E01F0F91F01F0DB70F3211F495
:1014100007E00DBF0F91000E0F91101E0F91201EBF
:101420000F91301E0F91401E0F91501E0F91601EA4
:101430000F91701E0DB70F3211F407E00DBF0F9121
:10144000800E0F91901E0F91A01E0F91B01E0F9154
:10145000C01E0F91D01E0F91E01E0F91F01E009143
:10146000E9010DBF0F91800F0F91901F0F91A01FE9
:101470000F91B01F0F91C01F0F91D01F0F91E01F50
:101480000F91F01F0DB7073411F40FE20DBF0F914C
:10149000000E0F91101E0F91201E0F91301E0F9104
:1014A000401E0F91501E0F91601E0F91701E0091F3
:1014B000E6010395800E0027901EA01EB01EC01EE0
:1014C000D01EE01EF01E03E00DBF0C943D02782FED
:1014D0008827769531F008F48627660F08F464278C
:1014E000F8CF08F4862708956F927F928F929F928B
:1014F000AF92BF92CF92DF92EF92FF920F931F9322
:10150000CF93DF93EB0127EB622E21E0722ED30104
:101510002C91FC0120A7B9962FE1DF011D922A959D
:10152000E9F7DF936F939C01285D3F4F3F932F9323
:10153000812C912CA12CB12CC12CD12CE12CF12C83
:1015400000E010E020E030E040E050E06FEF70E0BD
:101550000E94BC098881D3019C91892788830F90C0
:101560000F900F900F9088EB91E0DF91CF911F913A
:101570000F91FF90EF90DF90CF90BF90AF909F9032
:101580008F907F906F90089520E2FB01A6E9B1E073
:1015900001900D922A95E1F726E731E040E450E012
:1015A000B9010E94D80B8FEF8093B7011092B6015A
:1015B000089520E2E6E7F1E0DF011D922A95E9F7C0
:1015C0000C94C40A20E2E6E7F1E0DC0118960190F1
:1015D0000D922A95E1F71092B70166E771E00E943B
:1015E000740A1092B6010895CF93DF93EC018091B5
:1015F000B601811114C08091B7018F3F19F4CE015B
:101600000E94E20A8091B7018F5F8093B70166E97B
:1016100071E0CE010E94740A80E28093B601E091ED
:10162000B601E150E093B601F0E0EA58FE4F80A128
:10163000DF91CF9108952F923F924F925F926F92D8
:101640007F928F929F92AF92BF92CF92DF92EF9252
:10165000FF920F931F93CF93DF9300D01F92CDB7CC
:10166000DEB73C017B836A83342E29014701580190
:101670002C2CD9822FE12417B0F0C42ED12C8C0150
:10168000085D1F4FA601C8010E94D21440E250E03D
:101690004C195D09C601889660E070E0860D971DC3
:1016A0000E94DB1402C00A811B81C501AA27BB2747
:1016B000E981EF932F921F930F935C01C12CD12CE2
:1016C000E12CF12C00E010E020E030E040E050E0C0
:1016D000B201C3010E94BC099A81A22DB9810F9069
:1016E0000F900F900F90E92FFB818E2F891B831590
:1016F00028F421918C9182278D93F7CF8A819B8149
:10170000830D911D0F900F900F90DF91CF911F913E
:101710000F91FF90EF90DF90CF90BF90AF909F9090
:101720008F907F906F905F904F903F902F90089593
:1017300040E250E060E770E086EC91E00C94C91460
:10174000CF92DF92EF92FF920F931F93CF93DF938D
:10175000EC0140E250E060E770E008960E94C91496
:101760008FE1E82EF12CFE01EE0DFF1D90A59111E9
:1017700002C08150F6CF8FEFE81AF80A0027F7FC75
:101780000095102FBE01685D7F4F96ECC92E91E049
:10179000D92E20E038EC40E2CE010E941B0BDF91F5
:1017A000CF911F910F91FF90EF90DF90CF90089510
:1017B0002F923F924F925F926F927F928F929F9261
:1017C000AF92BF92CF92DF92EF92FF920F931F934F
:1017D000CF93DF93EC013A01190180E2E6ECF1E0EE
:1017E000DE01189601900D928A95E1F7812C912CDB
:1017F000540130EBCE0108962C01740180E2880E72
:10180000911CA11CB11C91E2691671047CF0232F7C
:1018100030E062018501740140E2CE010E941B0BA1
:10182000BC0190E2691A710830E8E7CFE60CF71CBA
:101830000027F7FC0095102F3064620120E0462D50
:10184000CE010E941B0B610118E0E12EF12C00E09B
:1018500010E020E03FEF40E060E070E0CE010E9449
:101860001B0BDF91CF911F910F91FF90EF90DF90B5
:10187000CF90BF90AF909F908F907F906F905F9030
:101880004F903F902F900895DC011D921D921D9264
:101890001C92139780E814968C93149780E2E6ECE0
:1018A000F1E0189601900D928A95E1F70895CF9294
:1018B000DF92EF92FF920F931F93CF93DF93EC0190
:1018C0003C81E880F9800A811B8180E2E80EF11CEE
:1018D000011D111DE882F9820A831B836E0188E0D5
:1018E000C80ED11C306320E040E2CE010E941B0BE9
:1018F0001C82DF91CF911F910F91FF90EF90DF90AD
:10190000CF900895AF92BF92CF92DF92EF92FF9265
:101910000F931F93CF93DF935C01E901FC013481A6
:10192000E080F18002811381E40EF11C011D111D84
:10193000E082F182028313836C01F8E0CF0ED11CA8
:10194000306720E00E941B0B6E0118E0E12EF12CA5
:1019500000E010E020E03FEF40E060E070E0C50113
:101960000E941B0BDF91CF911F910F91FF90EF9081
:10197000DF90CF90BF90AF9008954AE00C949C0DFB
:10198000CF93DF9300D000D0CDB7DEB7FC018081CC
:10199000898384818A8380858B8384858C8370E0AE
:1019A000AA27BB27A61BB70BA370BB2781E090E03B
:1019B0008C0F9D1FA80FB91F8C918083A5E0B0E00C
:1019C000A61BB70BA370BB2781E090E08C0F9D1F77
:1019D000A80FB91F8C918483A6E0B0E0A61BB70BBB
:1019E000A370BB2781E090E08C0F9D1FA80FB91F4B
:1019F0008C918087DB01A095B095A370BB2781E017
:101A000090E08C0F9D1FA80FB91F8C9184870F90B9
:101A10000F900F900F90DF91CF9108955F926F928A
:101A20007F928F929F92AF92BF92CF92DF92EF926E
:101A3000FF920F931F93CF93DF93962E96949694D5
:101A40007C0123E0E20EF11CEC018C010E5F1F4FC4
:101A50006C018FEFC81AD80A812C891409F45CC074
:101A6000F801A080F7018081A826B880F601808166
:101A7000B8266B2D6A254BE189E00E94670A682E23
:101A80006881F801808168274BE184E00E94670A41
:101A9000782E7624F6016081F701808168274BE17A
:101AA00084E00E94670A6826F701508068816525F6
:101AB0004BE182E00E94670A85258625F701808335
:101AC000F6015080F801608165254BE182E00E94BB
:101AD000670A85258625F6018083F80160804BE141
:101AE0006A2D82E00E94670A86258725F801808397
:101AF000A8804BE16B2D82E00E94670A8A2587252A
:101B000088838394F4E0EF0EF11C24960C5F1F4F42
:101B100024E0C20ED11CA1CFDF91CF911F910F9174
:101B2000FF90EF90DF90CF90BF90AF909F908F90FD
:101B30007F906F905F9008958F929F92AF92BF9227
:101B4000CF92DF92EF92FF920F931F93CF93DF9389
:101B5000EC018B01842E7B0120E1429FE00CF11C03
:101B600011240E94030FE4E0F1E0819190E09E01D6
:101B7000280F391F8E0D9F1DDC018C91D9019C917E
:101B800089278C93B1E0E431FB0779F77E01EFEF11
:101B9000EE1AFE0A61E0C7010E94C00C6E01F2E07D
:101BA000CF0ED11C62E0C6010E94C00C5E0123E092
:101BB000A20EB11C63E0C5010E94C00CA4E0B1E01C
:101BC0008D91FE01E80FF11DCF012081E22FF0E0A1
:101BD000E057FF4F2491FC012083F1E0A431BF07BF
:101BE00079F721E0281508F03CC099249A94980CC4
:101BF000D80120E1929EA00DB11D1124FE0180E0CC
:101C00002D919081922791938F5F8031C9F760E188
:101C1000CE010E940E0D61E0C7010E94C00C62E07F
:101C2000C6010E94C00C63E0C5010E94C00C32E0F6
:101C3000831202C00E94030FA4E0B1E08D91FE0167
:101C4000E80FF11DCF012081E22FF0E0E057FF4FB8
:101C50002491FC012083F1E0A431BF0779F7892C9E
:101C6000C0CFE4E0F1E0819190E09E01280F391FA0
:101C7000800F911FDC018C91D9019C9189278C9355
:101C8000B1E0E431FB0779F7DF91CF911F910F911C
:101C9000FF90EF90DF90CF90BF90AF909F908F908C
:101CA00008958F929F92AF92BF92CF92DF92EF9260
:101CB000FF920F931F93CF93DF93EA018B0135E0DF
:101CC000169507953A95E1F7D02E7801FF249701F4
:101CD000295F3F4FC22ECC0CCC0CAB0163E0569574
:101CE00047956A95E1F7BC01CE010E94D214902E6F
:101CF000990CA02E60E070E0B12CF62FED2DE60FD0
:101D0000EC1508F06EC08E2F90E0AC014150504CA5
:101D1000440F551F440F551F4C0F5D1FDA010D91E5
:101D20001D912D913C91EA1501F1B8E0DB1240C004
:101D3000E770E43009F03CC0E02FF0E0E656FE4FDB
:101D4000E4910E2FE12FF0E0E656FE4FE4911E2FB6
:101D5000E22FF0E0E656FE4FE4912E2FE32FF0E065
:101D6000E656FE4FE4913E2F23C0AF2EA90CB02FB4
:101D7000832EE12FF0E0E656FE4FA491E22FF0E033
:101D8000E656FE4FE4911E2FE82DF0E0E656FE4F9A
:101D9000E4912E2FEB2FF0E0E656FE4FE4913E2F1C
:101DA000EB2DF0E0E057FE4FE4910E2F0A27B3949D
:101DB000FC01EE19FF09EE0FFF1FEE0FFF1FEC0FE6
:101DC000FD1F80819181A281B38180279127A22765
:101DD000B327FA0184839583A683B7836F5F7F4F10
:101DE0008CCFDF91CF911F910F91FF90EF90DF90FB
:101DF000CF90BF90AF909F908F900895AB0160E817
:101E000070E00C94510E0F931F93CF93DF9304E176
:101E100011E0C0E1D0E00E94C61390E0BE010E9434
:101E20004814F80122918F018C5F9E4FFC01308194
:101E3000F8013083FC0120832197C130D10559F787
:101E4000DF91CF911F910F9108951F920F920FB6BE
:101E50000F9211248F939F938091BB01811123C016
:101E60001E9921C08091BC0181111DC0809181000B
:101E700081608093810010928500109284001092FE
:101E8000BB011092BA0186EB91E090938900809398
:101E90008800809168008D7F8093680080916C003D
:101EA0008F7B80936C009F918F910F900FBE0F904E
:101EB0001F9018951F920F920FB60F9211242F9317
:101EC0003F934F935F936F937F938F939F93AF93C2
:101ED000BF93EF93FF938091BC01882321F0813061
:101EE00009F48EC098C08091BB01811106C084E7BF
:101EF00091E090938900809388008091BB018830A5
:101F0000A8F51E9B02C081E001C08FEF1E9B02C09E
:101F100021E001C02FEF820F1E9B02C021E001C013
:101F20002FEF280F1E9B02C081E001C08FEF820FB0
:101F30001E9B02C091E001C09FEF3091BA01209139
:101F4000BB0141E0420F4093BB01482F490F81E0A4
:101F500090E0141614F080E090E0022E01C0880F8B
:101F60000A94EAF7832B8093BA0155C08091BB0194
:101F7000883009F050C01E9B02C081E001C08FEF85
:101F80001E9B02C041E001C04FEF840F1E9B02C0A8
:101F900041E001C04FEF480F1E9B02C081E001C02D
:101FA0008FEF480F1E9B02C091E001C09FEF809110
:101FB000BA01082E82958025082E86958695802563
:101FC000940F41E050E0191614F040E050E08F5FAC
:101FD00081FB222720F930E081E04217530709F006
:101FE00080E061E271E00E941B1481E08093B901FE
:101FF0001092BB01809181008E7F809381000BC085
:102000008091B801882311F0269802C0269A2E9854
:1020100081E080931401FF91EF91BF91AF919F9167
:102020008F917F916F915F914F913F912F910F9081
:102030000FBE0F901F9018951092BC011092B9011D
:1020400026982E9AE8E6F0E0808182608083ECE6B4
:10205000F0E0808180648083089581E08093BC01FA
:10206000E8E6F0E080818D7F8083ECE6F0E080811F
:102070008F7B8083269A089526982E9AE8E6F0E0D2
:10208000808182608083ECE6F0E0808180648083E0
:10209000E1E8F0E080818860808384E791E09093BC
:1020A000890080938800EFE6F0E080818260808381
:1020B0000895909114019923E1F3109214018093F3
:1020C000B8010895DF92EF92FF920F931F93CF9381
:1020D000DF93E82E0E942D1010928500109284004C
:1020E0009091810091609093810081E00E9459104D
:1020F00081E00E94591081E00E94591080E00E9406
:102100005910C8E0D0E001E010E0DD24D394FF24B2
:10211000F394802F8E2109F4F12C8F2D0E945910F9
:10212000F1101D25000F2197209789F7812F8170CD
:102130000E945910809114018823E1F38DE590E00D
:102140000197F1F7809181008E7F80938100DF916C
:10215000CF911F910F91FF90EF90DF900C941C1086
:102160000F931F93CF93DF931F92CDB7DEB78C01F0
:10217000680F601741F0F80181918F0169830E9417
:1021800062106981F6CF0F90DF91CF911F910F916F
:1021900008950E941C108091B9018823E1F3809179
:1021A000BA0108951F920F920FB60F9211248F93C8
:1021B0009F93EF93FF938091BD01811112C0809195
:1021C0000F0296B5E82FF0E0E551FE4F90838F5F48
:1021D00080930F02803228F081E08093BD0110923D
:1021E0000F02FF91EF919F918F910F900FBE0F9073
:1021F0001F9018958091BD01882309F455C08091E6
:102200001002843008F050C0E091100224E0E29FF8
:10221000F0011124EF5EFD4F208131814281538115
:10222000EBEEF1E08191280F311D411D511DA1E020
:10223000B4E00E9429149B01AC01A6E05695479595
:1022400037952795AA95D1F7262737274827592765
:1022500082E0EB30F80731F7A9E0B0E00E942914E2
:102260009B01AC01EBE05695479537952795EA958C
:10227000D1F72627372748275927A1E0B0E80E9441
:102280002914E091100224E0E29FF0011124EF5E96
:10229000FD4F60837183828393831092BD0180918F
:1022A00010028F5F80931002089510920F02109217
:1022B000EA011092100214BEE0E6F0E0808188612D
:1022C000808380E4808316BC85B5816085BD0895D8
:1022D00085B58E7F85BD14BEE0E6F0E0808180612B
:1022E000808310820895AF92BF92CF92DF92EF92D7
:1022F000FF920F931F93CF93DF938091BE018111C3
:1023000041C00E94FA10809110028430D8F100E0A0
:1023100010E0C0E0D0E0F801EE0FFF1FEE0FFF1F4E
:10232000EF5EFD4FC080D180E280F3806F2D772774
:1023300088279927CE010E94DE165E016E2DCE0100
:1023400001960E94DE166D2DCE0102960E94DE16C9
:1023500024966C2DC50103960E94DE160F5F1F4F59
:10236000C031D105C1F681E08093BE01DF91CF91EC
:102370001F910F91FF90EF90DF90CF90BF90AF90A3
:102380000C946811DF91CF911F910F91FF90EF9006
:10239000DF90CF90BF90AF9008951F920F920FB62D
:1023A0000F9211242F933F934F935F936F937F93DB
:1023B0008F939F93AF93BF93EF93FF93589A0E948D
:1023C000B91487BD5898FF91EF91BF91AF919F913C
:1023D0008F917F916F915F914F913F912F910F90CE
:1023E0000FBE0F901F901895089585B58E7F85BDFF
:1023F00008958FEF81B9249A2C980E9455110E945C
:10240000F7130E944D130E943C106DE672E08DE4BC
:1024100091E00E94FE0E78940E9407130E94D5124C
:10242000FDCF7F928F929F92AF92BF92CF92DF9219
:10243000EF92FF920F931F93CF93DF93CDB7DEB749
:10244000E2970FB6F894DEBF0FBECDBF6C0100E07F
:1024500010E0862E912C84E2A82E81E0B82ECE01C9
:1024600001967C0108151905FCF4F60171906F01C5
:102470000E94C9107816A9F01F930F931F927F92A4
:102480001F928F93BF92AF92FF92EF920E94E2143D
:10249000B70180E00E941B140FB6F894DEBF0FBE98
:1024A000CDBF0F5F1F4FDECFE2960FB6F894DEBFB1
:1024B0000FBECDBFDF91CF911F910F91FF90EF9095
:1024C000DF90CF90BF90AF909F908F907F900895B6
:1024D000EF92FF920F931F93CF93DF9300D000D022
:1024E0001F92CDB7DEB77C0125E0E7E1F1E0DE0128
:1024F000119601900D922A95E1F765E0CE010196C3
:102500000E9411128701E12CF12C8FEE0E946210C3
:102510000E94C910F80181938F01FFEFEF1AFF0AA3
:1025200080E1E816F10489F70F900F900F900F905B
:102530000F90DF91CF911F910F91FF90EF90089531
:102540000F931F93CF93DF93CDB7DEB727970FB6C7
:10255000F894DEBF0FBECDBF8C0185E0ECE1F1E069
:10256000DE01119601900D928A95E1F765E0CE01AA
:1025700001960E94111280EC0E94621060E1C80175
:102580000E94B01080E98E831F8262E0CE01069621
:102590000E94B01027960FB6F894DEBF0FBECDBFD5
:1025A000DF91CF911F910F910895CF93DF93CDB716
:1025B000DEB762970FB6F894DEBF0FBECDBFCE0177
:1025C00001960E9468122C9A6DE672E0CE01019687
:1025D0000E94BD0C2C980E94731180E094E00E9430
:1025E0008A1381E6898B80E18A8B62E0CE01419675
:1025F0000E94B010CE0101960E94A01262960FB602
:10260000F894DEBF0FBECDBFDF91CF910895CF9379
:10261000DF9300D000D0CDB7DEB78BE3898380E9AC
:102620008A8381E18B831C8264E0CE0101960E9443
:10263000B0100F900F900F900F90DF91CF910895F1
:102640008091C10191E0980F9093C101803241F4D3
:1026500080911501909116010E94E20A1092C10129
:1026600080911501909116010C94F40A0F931F9319
:10267000CF93DF93EC0180E090E08C010F5F1F4F60
:102680000E94D61689930031110511F0C801F5CFCB
:10269000DF91CF911F910F9108951F93CF93DF93F7
:1026A000CDB7DEB760970FB6F894DEBF0FBECDBFD3
:1026B0001092C5011092C4011092C3011092C20180
:1026C000CE0101960E9436130E94980BBE016F5FE7
:1026D0007F4F80911501909116010E94D90A0E94A6
:1026E0002013182F0E9420131F70682F812F90E055
:1026F0000E94DE1660960FB6F894DEBF0FBECDBF07
:10270000DF91CF911F91089590E00C94D61690E040
:102710000C94DE16EF92FF920F931F93CF93DF93EB
:10272000F894EC0101E014E0209741F1E090C2013F
:10273000F090C3012197C7010196B8010E9434149B
:102740002091C4013091C50182179307B9F080919F
:102750001501909116010E942013F701E35EFC4FD2
:1027600080838091C2019091C3010196B8010E94BB
:1027700034149093C3018093C201D6CF7894DF9133
:10278000CF911F910F91FF90EF9008958091C40118
:102790009091C5012091C2013091C3018217930726
:1027A00079F0FC01E35EFC4F2081019661E074E06A
:1027B0000E9434149093C5018093C401822F089520
:1027C0006DE571E081E00E941B1480E00895809126
:1027D000C2019091C3012091C4013091C5018217BB
:1027E000930710F48F5F9B4F821B930B08951092F9
:1027F000C5001092C400E0ECF0E08081826080832C
:10280000E1ECF0E0808188608083509A58980895C8
:102810009091C00095FFFCCF8093C6000895CF93A0
:10282000DF93EC018991882319F00E940814FACFF4
:10283000DF91CF91089581110BC082B1811102C047
:1028400081E002C082B18F5F82B9CB010C940F147A
:1028500008950E945C14A59F900DB49F900DA49FB5
:10286000800D911D11240895AA1BBB1B51E107C0C7
:10287000AA1FBB1FA617B70710F0A61BB70B881F10
:10288000991F5A95A9F780959095BC01CD0108959F
:1028900097FB072E16F4009407D077FD09D00E940D
:1028A000341407FC05D03EF4909581959F4F089510
:1028B000709561957F4F0895A29FB001B39FC001AD
:1028C000A39F700D811D1124911DB29F700D811D5C
:1028D0001124911D08958F929F92AF92BF92CF9233
:1028E000DF92EF92FF92CF93DF93EC0168817981C1
:1028F0008A819B81611571058105910521F464E24E
:1029000079ED8BE597E02DE133EF41E050E00E9457
:102910009A1749015A019B01AC01A7EAB1E40E9450
:1029200029146B017C01ACEEB4EFA50194010E9467
:102930009517C60ED71EE81EF91EF7FE06C081E0E9
:10294000C81AD108E10880E8F80AC882D982EA8268
:10295000FB82C6019F77DF91CF91FF90EF90DF90D0
:10296000CF90BF90AF909F908F9008950E946B146E
:10297000089580E091E00E946B140895A0E0B0E01B
:102980008093000190930101A0930201B093030191
:102990000895FB01DC0102C005900D9241505040AA
:1029A000D8F70895FB01DC0102C001900D9241505F
:1029B0005040D8F70895DC0101C06D93415050405C
:1029C000E0F70895AEE0B0E0E8EEF4E10C94C7174C
:1029D0000D891E8986E08C831A8309838FEF9FE718
:1029E0009E838D83AE01475E5F4F6F89788DCE01E8
:1029F00001960E940415EF81F885E00FF11F108207
:102A00002E96E4E00C94E317ACE0B0E0EAE0F5E1E8
:102A10000C94B9177C016B018A01FC0117821682A4
:102A2000838181FFBDC1CE0101964C01F7019381E5
:102A3000F60193FD859193FF81916F01882309F43D
:102A4000ABC1853239F493FD859193FF81916F017C
:102A5000853229F4B70190E00E940217E7CF512C8C
:102A6000312C20E02032A0F48B3269F030F4803237
:102A700059F0833269F420612CC08D3239F08033F3
:102A800039F4216026C02260246023C0286021C060
:102A900027FD27C030ED380F3A3078F426FF06C006
:102AA000FAE05F9E300D1124532E13C08AE0389E49
:102AB000300D1124332E20620CC08E3221F426FDFD
:102AC0006BC1206406C08C3611F4206802C08836C1
:102AD00041F4F60193FD859193FF81916F0181117E
:102AE000C1CF982F9F7D9554933028F40C5F1F4FD2
:102AF000FFE3F9830DC0833631F0833771F08335FE
:102B000009F05BC022C0F801808189830E5F1F4FEE
:102B100044244394512C540115C03801F2E06F0E47
:102B2000711CF801A080B18026FF03C0652D70E004
:102B300002C06FEF7FEFC5012C870E94F7162C01B2
:102B400083012C852F77222E17C03801F2E06F0EFB
:102B5000711CF801A080B18026FF03C0652D70E0D4
:102B600002C06FEF7FEFC5012C870E94EC162C018D
:102B70002C852068222E830123FC1BC0832D90E02E
:102B800048165906B0F4B70180E290E00E9402179F
:102B90003A94F4CFF50127FC859127FE81915F01DE
:102BA000B70190E00E94021731103A94F1E04F1AF9
:102BB00051084114510471F7E5C0843611F089368B
:102BC00039F5F80127FF07C0608171818281938107
:102BD0000C5F1F4F08C060817181882777FD809549
:102BE000982F0E5F1F4F2F76B22E97FF09C090953A
:102BF0008095709561957F4F8F4F9F4F2068B22EC3
:102C00002AE030E0A4010E943417A82EA81844C07E
:102C1000853729F42F7EB22E2AE030E025C0F22F2E
:102C2000F97FBF2E8F36C1F018F4883579F0B4C023
:102C3000803719F0883721F0AFC02F2F2061B22ED6
:102C4000B4FE0DC08B2D8460B82E09C024FF0AC0CD
:102C50009F2F9660B92E06C028E030E005C020E125
:102C600030E002C020E132E0F801B7FE07C0608129
:102C70007181828193810C5F1F4F06C060817181D9
:102C800080E090E00E5F1F4FA4010E943417A82E31
:102C9000A818FB2DFF77BF2EB6FE0BC02B2D2E7F65
:102CA000A51450F4B4FE0AC0B2FC08C02B2D2E7E31
:102CB00005C07A2C2B2D03C07A2C01C0752C24FF63
:102CC0000DC0FE01EA0DF11D8081803311F4297ED3
:102CD00009C022FF06C07394739404C0822F8678C3
:102CE00009F0739423FD13C020FF06C05A2C7314FF
:102CF00018F4530C5718732C731468F4B70180E25E
:102D000090E02C870E94021773942C85F5CF7314E2
:102D100010F4371801C0312C24FF12C0B70180E332
:102D200090E02C870E9402172C8522FF17C021FFFC
:102D300003C088E590E002C088E790E0B7010CC0CE
:102D4000822F867859F021FD02C080E201C08BE21B
:102D500027FD8DE2B70190E00E940217A51438F418
:102D6000B70180E390E00E9402175A94F7CFAA942B
:102D7000F401EA0DF11D8081B70190E00E94021775
:102D8000A110F5CF332009F451CEB70180E290E0D5
:102D90000E9402173A94F6CFF7018681978102C00C
:102DA0008FEF9FEF2C96E2E10C94D517F999FECFA7
:102DB00092BD81BDF89A992780B50895262FF9997B
:102DC000FECF1FBA92BD81BD20BD0FB6F894FA9A0E
:102DD000F99A0FBE01960895FC010590615070406C
:102DE0000110D8F7809590958E0F9F1F0895FC01D4
:102DF0006150704001900110D8F7809590958E0F2A
:102E00009F1F08950F931F93CF93DF93182F092FC0
:102E1000EB018B8181FD03C08FEF9FEF20C082FF0C
:102E200010C04E815F812C813D81421753077CF495
:102E3000E881F9819F012F5F3F4F398328831083F9
:102E400006C0E885F985812F0995892B29F72E8100
:102E50003F812F5F3F4F3F832E83812F902FDF9144
:102E6000CF911F910F910895FA01AA27283051F1AF
:102E7000203181F1E8946F936E7F6E5F7F4F8F4FAB
:102E80009F4FAF4FB1E03ED0B4E03CD0670F781F0A
:102E9000891F9A1FA11D680F791F8A1F911DA11DEF
:102EA0006A0F711D811D911DA11D20D009F4689428
:102EB0003F912AE0269F11243019305D3193DEF6D0
:102EC000CF010895462F4770405D4193B3E00FD086
:102ED000C9F7F6CF462F4F70405D4A3318F0495D71
:102EE00031FD4052419302D0A9F7EACFB4E0A69554
:102EF0009795879577956795BA95C9F70097610576
:102F0000710508959B01AC010A2E069457954795CB
:102F100037952795BA95C9F7620F731F841F951FC0
:102F2000A01D0895B7FF0C9429140E942914821B38
:102F3000930B0895052E97FB1EF400940E94B11781
:102F400057FD07D00E94F01707FC03D04EF40C94F5
:102F5000B11750954095309521953F4F4F4F5F4F9A
:102F6000089590958095709561957F4F8F4F9F4FF5
:102F700008952F923F924F925F926F927F928F921D
:102F80009F92AF92BF92CF92DF92EF92FF920F93F8
:102F90001F93CF93DF93CDB7DEB7CA1BDB0B0FB602
:102FA000F894DEBF0FBECDBF09942A8839884888BF
:102FB0005F846E847D848C849B84AA84B984C88455
:102FC000DF80EE80FD800C811B81AA81B981CE0F4C
:102FD000D11D0FB6F894DEBF0FBECDBFED01089531
:102FE000A1E21A2EAA1BBB1BFD010DC0AA1FBB1F0D
:102FF000EE1FFF1FA217B307E407F50720F0A21B7F
:10300000B30BE40BF50B661F771F881F991F1A94EB
:1030100069F760957095809590959B01AC01BD0115
:08302000CF010895F894FFCFE1
:1030280001000000000102030405060708090A0B55
:103038000C0D0E0F012502881000001088C000003A
:1030480010575000526563656976656420253032F3
:103058005820696E7374656164206F66202530326C
:103068005820617420627974652025640064892180
:103078001588B4CEE0184A1444E4DFC75872616E6C
:10308800646F6D2062756666657220756E64657220
:06309800666C6F7700007A
:00000001FF
