:100000000C9438000C9442000C9442000C94420072
:100010000C9442000C9442000C9442000C94420058
:100020000C9442000C9442000C9442000C94420048
:100030000C9442000C9442000C9442000C94420038
:100040000C9442000C9442000C9442000C94420028
:100050000C9442000C9442000C9442000C94420018
:100060000C9442000C9442000C9442000C94420008
:1000700011241FBECFEFD0E1DEBFCDBF0E944400F0
:100080000C94F0000C9400008FEF81B981E082B9EC
:1000900092E024E038E040E150E260E470E882B9A8
:1000A000AFEFEFE7F2E0A150E040F040E1F700C031
:1000B000000092B9AFEFEFEFF1E0A150E040F04067
:1000C000E1F700C0000022B9AFEFEFE7F1E0A15087
:1000D000E040F040E1F700C0000032B9AFEFEFEFD1
:1000E000F0E0A150E040F040E1F700C0000042B96C
:1000F000AFEFEFEFF0E0A150E040F040E1F700C0DB
:10010000000052B9AFEFEFE7F1E0A150E040F0405E
:10011000E1F700C0000062B9AFEFEFEFF1E0A150EE
:10012000E040F040E1F700C0000072B9AFEFEFE748
:10013000F2E0A150E040F040E1F700C0000072B9E9
:10014000AFEFEFE7F2E0A150E040F040E1F700C090
:10015000000062B9AFEFEFEFF1E0A150E040F040F6
:10016000E1F700C0000052B9AFEFEFE7F1E0A150B6
:10017000E040F040E1F700C0000042B9AFEFEFEF20
:10018000F0E0A150E040F040E1F700C0000032B9DB
:10019000AFEFEFEFF0E0A150E040F040E1F700C03A
:1001A000000022B9AFEFEFE7F1E0A150E040F040EE
:1001B000E1F700C0000092B9AFEFEFEFF1E0A1501E
:1001C000E040F040E1F700C0000082B9AFEFEFE798
:1001D000F2E0A150E040F040E1F700C000005FCF46
:0401E000F894FFCFC1
:00000001FF
