:100000000C9448000C9465000C9465000C946500F9
:100010000C9465000C94D40B0C9465000C94650052
:100020000C94810D0C9465000C9465000C94650093
:100030000C9465000C94090C0C9465000C946500FC
:100040000C947F0E0C9465000C9465000C94650074
:100050000C9465000C9465000C9465000C9465008C
:100060000C9465000C9465000C9465000C9465007C
:1000700049B448D060A89DFC33D8A79F4766CA2FD3
:100080000F84566689C33BB369DAE8FD20E9546AF8
:1000900011241FBECFEFD0E1DEBFCDBF11E0A0E045
:1000A000B1E0E0ECF9E202C005900D92AC33B1078B
:1000B000D9F715E0ACE3B1E001C01D92AF3EB10746
:1000C000E1F70E94AB0E0C94DE140C940000EF914B
:1000D000FF912F923F924F925F926F927F928F92F9
:1000E0009F92AF92BF92CF92DF92EF92FF920F93C7
:1000F0001F93CF93DF93DFB7D7FBF894ADB7BEB7AD
:100100009EBF87E08DBFBF93AF93FF93EF9355964C
:10011000CD91DC9168967A906A905A904A903A9084
:100120002A901A900A90FA91EA91E093AD01F09327
:10013000AF01FE01D291C291B291A29192918291AE
:100140008093AE018FE38DBF7F936F935F934F9347
:100150003F932F931F930F93FF92EF92DF92CF92D3
:10016000BF92AF929F928F92082519252A253B2591
:100170004C255D256E257F25709681909190A190EC
:10018000B190C190D190E190F19087E48DBF7F93C1
:100190006F935F934F933F932F931F930F937BE145
:1001A00061ED5BE14AED39EA2CEF1AE102E287E00A
:1001B0008DBF8F9108278F9118278F9128278F91B6
:1001C00038278F9148278F9158278F9168278F91D3
:1001D00078278F9108278F9118278F9128278F9143
:1001E00038278F9148278F9158278F9168278F91B3
:1001F00078278F9108278F9118278F9128278F9123
:1002000038278F9148278F9158278F9168278F9192
:1002100078278F9108278F9118278F9128278F9102
:1002200038278F9148278F9158278F9168278F9172
:10023000782778978FE28DBF82917F93782F829174
:100240006F93682F82915F93582F82914F93482F1D
:1002500082913F93382F82912F93282F82911F9361
:10026000182F82910F93082FE091AD018091AE017C
:10027000F3E0FDBF08950091AF01E093AD01F0936D
:10028000AF018093AE01F5E0FDBFEF91FF9177964E
:100290008191F081E82F8091AE0101931193219318
:1002A0003193419351936193719381939193A1936E
:1002B000B193C193D193C091AD01D091AF01C193DE
:1002C000D193019211922192319241925192619275
:1002D000719281929192A192B192C192D192E19246
:1002E000F19205E00DBFAF91BF91ADBFBEBFDF91F1
:1002F000CF911F910F91FF90EF90DF90CF90BF9023
:10030000AF909F908F907F906F905F904F903F90B5
:100310002F9011240EF478940895F091AE01FDBF52
:10032000FF910F1BFF911F0BFF912F0BFF913F0BB5
:10033000FF914F0BFF915F0BFF916F0BFF917F0BB5
:10034000F091AF010093AF010DB70F3211F407E048
:100350000DBF0F91801B0F91900B0F91A00B0F9170
:10036000B00B0F91C00B0F91D00B0F91E00B0F91C1
:10037000F00B0DB70F3211F407E00DBF0F91001A0B
:100380000F91100A0F91200A0F91300A0F91400A25
:100390000F91500A0F91600A0F91700A0DB70F323A
:1003A00011F407E00DBF0F91801A0F91900A0F9181
:1003B000A00A0F91B00A0F91C00A0F91D00A0F91B5
:1003C000E00A0F91F00A0DB70F3209F407E000932D
:1003D000AE010091B0010DBF0F91801B0F91900BEA
:1003E0000F91A00B0F91B00B0F91C00B0F91D00B81
:1003F0000F91E00B0F91F00B0DB7073411F40FE2E2
:100400000DBF0F91001A0F91100A0F91200A0F9142
:10041000300A0F91400A0F91500A0F91600A0F9114
:10042000700A0DB7073409F40FE20093B001009190
:10043000AD010A950093AD01801A0027900AA00A29
:10044000B00AC00AD00AE00AF00A0091AF010EF427
:10045000789480269126A226B326C426D526E626A1
:10046000F7260C191D092E093F09480959096A097F
:100470007B0980259125A225B325C425D525E62510
:10048000F7250C1A1D0A2E0A3F0A480A590A6A0A59
:100490007B0AC027D127E227F32784279527A627A1
:1004A000B727B0FBA69597958795F795E795D795CC
:1004B000C795B795A7F9B0FBA69597958795F7953A
:1004C000E795D795C795B795A7F90B1B1C0B2D0B77
:1004D0003E0B4F0B580B690B7A0BC024D124E2243E
:1004E000F32484249524A624B724E7FAFF0C881C5F
:1004F000991CAA1CBB1CCC1CDD1CEE1CF0F8E7FAF6
:10050000FF0C881C991CAA1CBB1CCC1CDD1CEE1CFF
:10051000F0F80F18180829083A084B085C086D080D
:100520007E08F02681269226A326B426C526D62646
:10053000E726C7FADD0CEE1CFF1C881C991CAA1CC0
:10054000BB1CCC1CD0F8C7FADD0CEE1CFF1C881CB1
:10055000991CAA1CBB1CCC1CD0F80D191E092F0914
:10056000380949095A096B097C09B025C125D225EA
:10057000E325F42585259625A725C0FBB695A795E7
:1005800097958795F795E795D795C795B7F9C0FBE8
:10059000B695A79597958795F795E795D795C795BC
:1005A000B7F9C0FBB695A79597958795F795E79509
:1005B000D795C795B7F9C0FBB695A7959795879539
:1005C000F795E795D795C795B7F90C1A1D0A2E0A26
:1005D0003F0A480A590A6A0A7B0AC027D127E2273C
:1005E000F32784279527A627B727F0FBE695D7950D
:1005F000C795B795A79597958795F795E7F90F1B39
:10060000180B290B3A0B4B0B5C0B6D0B7E0BD0249C
:10061000E124F22483249424A524B624C72490FA48
:100620008694F794E794D794C794B794A794979433
:1006300087F809181A082B083C084D085E086F084F
:100640007808F093AF01FFB7F7FBF894F091AE0193
:10065000FDBFFF910F1BFF911F0BFF912F0BFF9110
:100660003F0BFF914F0BFF915F0BFF916F0BFF91C2
:100670007F0BF091AF010093AF010DB70F3211F472
:1006800007E00DBF0F91F01B0F91800B0F91900BA6
:100690000F91A00B0F91B00B0F91C00B0F91D00BCE
:1006A0000F91E00B0DB70F3211F407E00DBF0F9162
:1006B000001A0F91100A0F91200A0F91300A0F9122
:1006C000400A0F91500A0F91600A0F91700A0DB7FE
:1006D0000F3211F407E00DBF0F91901A0F91A00A8D
:1006E0000F91B00A0F91C00A0F91D00A0F91E00A42
:1006F0000F91F00A0F91800A0DB70F3209F407E04D
:100700000093AE010091B0010DBF0F91F01B0F914E
:10071000800B0F91900B0F91A00B0F91B00B0F91CD
:10072000C00B0F91D00B0F91E00B0DB7073411F4F4
:100730000FE20DBF0F91001A0F91100A0F91200ABE
:100740000F91300A0F91400A0F91500A0F91600AE1
:100750000F91700A0DB7073409F40FE20093B0014E
:100760000091AD010A950093AD01901A0027A00AEF
:10077000B00AC00AD00AE00AF00A800A0091AF016C
:100780000EF478949026A126B226C326D426E52618
:10079000F626872697FAAA0CBB1CCC1CDD1CEE1C87
:1007A000FF1C881C991CA0F897FAAA0CBB1CCC1C37
:1007B000DD1CEE1CFF1C881C991CA0F897FAAA0CE3
:1007C000BB1CCC1CDD1CEE1CFF1C881C991CA0F85B
:1007D0000A191B092C093D094E095F0968097909A5
:1007E000F02581259225A325B425C525D625E72505
:1007F000B7FBCC0FDD1FEE1FFF1F881F991FAA1F1D
:10080000BB1FC0F9B7FBCC0FDD1FEE1FFF1F881FFA
:10081000991FAA1FBB1FC0F9B7FBCC0FDD1FEE1F2E
:10082000FF1F881F991FAA1FBB1FC0F90C1A1D0AA2
:100830002E0A3F0A480A590A6A0A7B0AC027D127AA
:10084000E227F32784279527A627B727E7FBFF0F83
:10085000881F991FAA1FBB1FCC1FDD1FEE1FF0F9B9
:100860000F1B180B290B3A0B4B0B5C0B6D0B7E0B04
:10087000A024B124C224D324E424F524862497247C
:100880000F18180829083A084B085C086D087E08FC
:10089000F02681269226A326B426C526D626E7264C
:1008A000D7FAEE0CFF1C881C991CAA1CBB1CCC1C84
:1008B000DD1CE0F8D7FAEE0CFF1C881C991CAA1C62
:1008C000BB1CCC1CDD1CE0F8D7FAEE0CFF1C881C0E
:1008D000991CAA1CBB1CCC1CDD1CE0F8D7FAEE0C42
:1008E000FF1C881C991CAA1CBB1CCC1CDD1CE0F83E
:1008F0000E191F09280939094A095B096C097D0984
:10090000F02581259225A325B425C525D625E725E3
:10091000E0FBD695C795B795A79597958795F795D9
:10092000E795D7F90E1A1F0A280A390A4A0A5B0AFC
:100930006C0A7D0AE027F12782279327A427B52791
:10094000C627D727F7FB880F991FAA1FBB1FCC1FED
:10095000DD1FEE1FFF1F80F9F7FB880F991FAA1FED
:10096000BB1FCC1FDD1FEE1FFF1F80F9081B190BDB
:100970002A0B3B0B4C0B5D0B6E0B7F0BE024F12421
:1009800082249324A424B524C624D7240818190843
:100990002A083B084C085D086E087F08F093AF01F9
:1009A000FFB7F7FBF894F3E0FDBF08950E946700DE
:1009B000F3E1F093AD01FFE1F093AE01FFE2F093BC
:1009C000B0010E948D010E948D010E948D010E9444
:1009D0008D010E948D010E948D010E948D010E9457
:1009E0008D010E948D01F091AE01FDBFFF910F1BA3
:1009F000FF911F0BFF912F0BFF913F0BFF914F0BAF
:100A0000FF915F0BFF916F0BFF917F0BF091AF0197
:100A10000093AF010DB70F3211F407E00DBF0F9136
:100A2000801B0F91900B0F91A00B0F91B00B0F91AA
:100A3000C00B0F91D00B0F91E00B0F91F00B0DB786
:100A40000F3211F407E00DBF0F91001A0F91100A39
:100A50000F91200A0F91300A0F91400A0F91500A0E
:100A60000F91600A0F91700A0DB70F3211F407E071
:100A70000DBF0F91801A0F91900A0F91A00A0F914C
:100A8000B00A0F91C00A0F91D00A0F91E00A0F919E
:100A9000F00A0091B0010DBF0F91801B0F91900BD8
:100AA0000F91A00B0F91B00B0F91C00B0F91D00BBA
:100AB0000F91E00B0F91F00B0DB7073411F40FE21B
:100AC0000DBF0F91001A0F91100A0F91200A0F917C
:100AD000300A0F91400A0F91500A0F91600A0F914E
:100AE000700A0091AD010A95801A0027900AA00AA9
:100AF000B00AC00AD00AE00AF00A0C943B01F09157
:100B0000AE01FDBFFF910F0FFF911F1FFF912F1F20
:100B1000FF913F1FFF914F1FFF915F1FFF916F1FBD
:100B2000FF917F1FF091AF010093AF010DB70F321E
:100B300011F407E00DBF0093AE010F91800F0F91EC
:100B4000901F0F91A01F0F91B01F0F91C01F0F9109
:100B5000D01F0F91E01F0F91F01F0DB70F3211F44E
:100B600007E00DBF0F91000E0F91101E0F91201E78
:100B70000F91301E0F91401E0F91501E0F91601E5D
:100B80000F91701E0DB70F3211F407E00DBF0F91DA
:100B9000800E0F91901E0F91A01E0F91B01E0F910D
:100BA000C01E0F91D01E0F91E01E0F91F01E0091FC
:100BB000B0010DBF0F91800F0F91901F0F91A01FDB
:100BC0000F91B01F0F91C01F0F91D01F0F91E01F09
:100BD0000F91F01F0DB7073411F40FE20DBF009312
:100BE000B0010F91000E0F91101E0F91201E0F915A
:100BF000301E0F91401E0F91501E0F91601E0F91DD
:100C0000701E0091AD0103950093AD01800E002789
:100C1000901EA01EB01EC01ED01EE01EF01E03E0DF
:100C20000DBF0091AF010EF47894080F191F2A1F11
:100C30003B1F4C1F5D1F6E1F7F1FE0FBD695C795A6
:100C4000B795A79597958795F795E795D7F9E0FB21
:100C5000D695C795B795A79597958795F795E795F5
:100C6000D7F9E027F12782279327A427B527C6279E
:100C7000D727080C191C2A1C3B1C4C1C5D1C6E1C25
:100C80007F1CE024F12482249324A424B524C624C8
:100C9000D7240E0D1F1D281D391D4A1D5B1D6C1DFF
:100CA0007D1DF0FAE694D794C794B794A7949794CF
:100CB0008794F794E7F8F0FAE694D794C794B7943A
:100CC000A79497948794F794E7F8F0FAE694D7946A
:100CD000C794B794A79497948794F794E7F8F0FA99
:100CE000E694D794C794B794A79497948794F7946D
:100CF000E7F8F02681269226A326B426C526D62616
:100D0000E7260E0E1F1E281E391E4A1E5B1E6C1E75
:100D10007D1EE7FBFF0F881F991FAA1FBB1FCC1F5B
:100D2000DD1FEE1FF0F9F02581259225A325B425BE
:100D3000C525D625E7250F0F181F291F3A1F4B1F62
:100D40005C1F6D1F7E1FC0FBB695A7959795879575
:100D5000F795E795D795C795B7F9C027D127E2272B
:100D6000F32784279527A627B7270F0C181C291CC3
:100D70003A1C4B1C5C1C6D1C7E1CA024B124C2249C
:100D8000D324E424F524862497240A0D1B1D2C1D4E
:100D90003D1D4E1D5F1D681D791D90FA8694F794C8
:100DA000E794D794C794B794A794979487F890FA48
:100DB0008694F794E794D794C794B794A79497949C
:100DC00087F890FA8694F794E794D794C794B794E9
:100DD000A794979487F89026A126B226C326D426F6
:100DE000E526F62687260C0E1D1E2E1E3F1E481ECB
:100DF000591E6A1E7B1EF0FBE695D795C795B795E1
:100E0000A79597958795F795E7F9F0FBE695D79520
:100E1000C795B795A79597958795F795E7F9F0FB4F
:100E2000E695D795C795B795A79597958795F79523
:100E3000E7F9F02581259225A325B425C525D625DA
:100E4000E725F093AF01FFB7F7FBF894F091AE01FF
:100E5000FDBFFF910F0FFF911F1FFF912F1FFF91EC
:100E60003F1FFF914F1FFF915F1FFF916F1FFF916A
:100E70007F1FF091AF010093AF010DB70F3211F456
:100E800007E00DBF0093AE010F91F00F0F91801F8F
:100E90000F91901F0F91A01F0F91B01F0F91C01FB6
:100EA0000F91D01F0F91E01F0DB70F3211F407E023
:100EB0000DBF0F91000E0F91101E0F91201E0F916C
:100EC000301E0F91401E0F91501E0F91601E0F910A
:100ED000701E0DB70F3211F407E00DBF0F91900E89
:100EE0000F91A01E0F91B01E0F91C01E0F91D01E2A
:100EF0000F91E01E0F91F01E0F91801E0091B00126
:100F00000DBF0F91F00F0F91801F0F91901F0F9148
:100F1000A01F0F91B01F0F91C01F0F91D01F0F91F5
:100F2000E01F0DB7073411F40FE20DBF0093B001BD
:100F30000F91000E0F91101E0F91201E0F91301E69
:100F40000F91401E0F91501E0F91601E0F91701E49
:100F50000091AD0103950093AD01900E0027A01EF6
:100F6000B01EC01ED01EE01EF01E801E03E00DBF8E
:100F70000091AF010EF478940F0F181F291F3A1F2C
:100F80004B1F5C1F6D1F7E1FB7FBCC0FDD1FEE1FBD
:100F9000FF1F881F991FAA1FBB1FC0F9C027D12799
:100FA000E227F32784279527A627B727090C1A1CC1
:100FB0002B1C3C1C4D1C5E1C6F1C781CC7FADD0CE6
:100FC000EE1CFF1C881C991CAA1CBB1CCC1CD0F856
:100FD000D024E124F22483249424A524B624C72415
:100FE0000D0D1E1D2F1D381D491D5A1D6B1D7C1D0D
:100FF000F0FAE694D794C794B794A79497948794FB
:10100000F794E7F8F0FAE694D794C794B794A794C6
:1010100097948794F794E7F8F02681269226A326E2
:10102000B426C526D626E7260C0E1D1E2E1E3F1EF4
:10103000481E591E6A1E7B1EA7FBBB0FCC1FDD1F5F
:10104000EE1FFF1F881F991FAA1FB0F9A7FBBB0F38
:10105000CC1FDD1FEE1FFF1F881F991FAA1FB0F9AD
:10106000A7FBBB0FCC1FDD1FEE1FFF1F881F991FA3
:10107000AA1FB0F9A7FBBB0FCC1FDD1FEE1FFF1F80
:10108000881F991FAA1FB0F9B025C125D225E325D5
:10109000F42585259625A7250B0F1C1F2D1F3E1F08
:1010A0004F1F581F691F7A1FB7FBCC0FDD1FEE1FA4
:1010B000FF1F881F991FAA1FBB1FC0F9B7FBCC0FCA
:1010C000DD1FEE1FFF1F881F991FAA1FBB1FC0F93E
:1010D000C027D127E227F32784279527A627B727FC
:1010E0000F0C181C291C3A1C4B1C5C1C6D1C7E1C14
:1010F000C0FAB694A79497948794F794E794D794FA
:10110000C794B7F8C0FAB694A79497948794F794C5
:10111000E794D794C794B7F8C024D124E224F324E9
:1011200084249524A624B7240C0D1D1D2E1D3F1DBF
:10113000481D591D6A1D7B1D80269126A226B326B7
:10114000C426D526E626F7260C0E1D1E2E1E3F1E93
:10115000481E591E6A1E7B1E80259125A225B32597
:10116000C425D525E625F725F093AF01FFB7F7FB9A
:10117000F89408950E946700FFEFF093AD01F7E047
:10118000F093AE01FFE2F093B0010E947F050E9450
:101190007F050E947F050E947F050E947F050E94B7
:1011A0007F050E947F050E947F050E947F05F091C8
:1011B000AE01FDBFFF910F0FFF911F1FFF912F1F6A
:1011C000FF913F1FFF914F1FFF915F1FFF916F1F07
:1011D000FF917F1FF091AF010093AF010DB70F3268
:1011E00011F407E00DBF0F91800F0F91901F0F9129
:1011F000A01F0F91B01F0F91C01F0F91D01F0F9113
:10120000E01F0F91F01F0DB70F3211F407E00DBF73
:101210000F91000E0F91101E0F91201E0F91301E86
:101220000F91401E0F91501E0F91601E0F91701E66
:101230000DB70F3211F407E00DBF0F91800E0F9123
:10124000901E0F91A01E0F91B01E0F91C01E0F9106
:10125000D01E0F91E01E0F91F01E0091B0010DBF46
:101260000F91800F0F91901F0F91A01F0F91B01F32
:101270000F91C01F0F91D01F0F91E01F0F91F01F12
:101280000DB7073411F40FE20DBF0F91000E0F914F
:10129000101E0F91201E0F91301E0F91401E0F91B6
:1012A000501E0F91601E0F91701E0091AD010395AD
:1012B000800E0027901EA01EB01EC01ED01EE01E75
:1012C000F01E03E00DBF0C943B016F927F928F9252
:1012D0009F92AF92BF92CF92DF92EF92FF920F93C5
:1012E0001F93CF93DF93EB012CE3622E21E0722E4C
:1012F000D30190962D913C919197FC0131A720A7A5
:10130000BA962EE1DF011D922A95E9F7DF936F93DC
:101310009C01285D3F4F3F932F93812C912CA12C52
:10132000B12CC12CD12CE12CF12C00E010E020E0FC
:1013300030E040E050E06FEF70E00E94BA08888132
:10134000D30190969C919097892788838981919663
:101350009C91892789830F900F900F900F908EE5B5
:1013600091E0DF91CF911F910F91FF90EF90DF906F
:10137000CF90BF90AF909F908F907F906F90089587
:1013800020E2FB01ACE6B1E001900D922A95E1F775
:101390002CE331E040E450E0B9010E94F00A8FEF05
:1013A00090E090935D0180935C0110928C01089510
:1013B00020E2ECE3F1E0DF011D922A95E9F70C94BD
:1013C000C00920E2ECE3F1E0DC01189601900D92F7
:1013D0002A95E1F710925D0110925C016CE371E0D7
:1013E0000E94650910928C0108950F931F93CF936B
:1013F000DF9300D0CDB7DEB78C0180915C01909176
:101400005D018F3F910539F4C80169837A830E9499
:10141000E1097A81698120915C0130915D012F5F42
:101420003F4F30935D0120935C01C8010F900F90F6
:10143000DF91CF911F910F910C94650920918C0140
:10144000211107C06CE671E00E94F50980E28093EB
:101450008C01E0918C01E150E0938C01F0E0E459C3
:10146000FE4F808108952F923F924F925F926F922C
:101470007F928F929F92AF92BF92CF92DF92EF9224
:10148000FF920F931F93CF93DF9300D01F92CDB79E
:10149000DEB73C017B836A83342E29014701580162
:1014A0002C2CD9822FE12417B0F0C42ED12C8C0122
:1014B000085D1F4FA601C8010E949E1140E250E046
:1014C0004C195D09C601889660E070E0860D971D95
:1014D0000E94A71102C00A811B81C501AA27BB2750
:1014E000E981EF932F921F930F935C01C12CD12CB4
:1014F000E12CF12C00E010E020E030E040E050E092
:10150000B201C3010E94BA089A81A22DB9810F903D
:101510000F900F900F90E92FFB818E2F891B831561
:1015200028F421918C9182278D93F7CF8A819B811A
:10153000830D911D0F900F900F90DF91CF911F9110
:101540000F91FF90EF90DF90CF90BF90AF909F9062
:101550008F907F906F905F904F903F902F90089565
:1015600040E250E060E770E08DE891E00C94951166
:10157000CF92DF92EF92FF920F931F93CF93DF935F
:10158000EC0140E250E060E770E008960E9495119F
:101590008FE1E82EF12CFE01EE0DFF1D90A59111BB
:1015A00002C08150F6CF8FEFE81AF80A0027F7FC47
:1015B0000095102FBE01685D7F4F9DE8C92E91E018
:1015C000D92E20E038EC40E2CE010E94330ADF91B0
:1015D000CF911F910F91FF90EF90DF90CF900895E2
:1015E0002F923F924F925F926F927F928F929F9233
:1015F000AF92BF92CF92DF92EF92FF920F931F9321
:10160000CF93DF93EC013A01190180E2EDE8F1E0BC
:10161000DE01189601900D928A95E1F7812C912CAC
:10162000540130E7CE0108962C01740180E2880E47
:10163000911CA11CB11C91E26916710474F0620145
:101640008501740120E040E2CE010E94330ABC0112
:1016500090E2691A710830E3E8CFE60CF71C002726
:10166000F7FC0095102F3068620120E0462DCE0176
:101670000E94330A610118E0E12EF12C00E010E035
:1016800020E03FEF40E060E070E0CE010E94330ACE
:10169000DF91CF911F910F91FF90EF90DF90CF904E
:1016A000BF90AF909F908F907F906F905F904F9082
:1016B0003F902F900895DC011D921D921D921C9267
:1016C000139780E414968C93149780E2EDE8F1E090
:1016D000189601900D928A95E1F70895CF92DF92C6
:1016E000EF92FF920F931F93CF93DF93EC013C8116
:1016F000E880F9800A811B8180E2E80EF11C011D5F
:10170000111DE882F9820A831B836E0188E0C80EEE
:10171000D11C306320E040E2CE010E94330A1C82DB
:10172000DF91CF911F910F91FF90EF90DF90CF90BD
:101730000895AF92BF92CF92DF92EF92FF920F93F4
:101740001F93CF93DF935C01E901FC013481E080BA
:10175000F18002811381E40EF11C011D111DE08254
:10176000F182028313836C01F8E0CF0ED11C306B41
:1017700020E00E94330A6E0118E0E12EF12C00E017
:1017800010E020E03FEF40E060E070E0C5010E9423
:10179000330ADF91CF911F910F91FF90EF90DF906F
:1017A000CF90BF90AF9008951F920F920FB60F92F7
:1017B00011248F939F9380916101811123C01E9901
:1017C00021C08091620181111DC0809181008160E2
:1017D0008093810010928500109284001092610124
:1017E0001092600186EB91E09093890080938800CD
:1017F000809168008D7F8093680080916C008F7B62
:1018000080936C009F918F910F900FBE0F901F904F
:1018100018951F920F920FB60F9211242F933F939A
:101820004F935F936F937F938F939F93AF93BF93E8
:10183000EF93FF9380916201882321F0813009F4B6
:101840008EC098C080916101811106C084E791E04B
:101850009093890080938800809161018830A8F579
:101860001E9B02C081E001C08FEF1E9B02C021E0E1
:1018700001C02FEF820F1E9B02C021E001C02FEF9D
:10188000280F1E9B02C081E001C08FEF820F1E9BBC
:1018900002C091E001C09FEF309160012091610191
:1018A00041E0420F40936101482F490F81E090E0F1
:1018B000141614F080E090E0022E01C0880F0A9404
:1018C000EAF7832B8093600155C0809161018830D5
:1018D00009F050C01E9B02C081E001C08FEF1E9B2B
:1018E00002C041E001C04FEF840F1E9B02C041E0E7
:1018F00001C04FEF480F1E9B02C081E001C08FEF77
:10190000480F1E9B02C091E001C09FEF80916001D3
:10191000082E82958025082E869586958025940F21
:1019200041E050E0191614F040E050E08F5F81FB79
:10193000222720F930E081E04217530709F080E0C8
:101940006FE071E00E94031181E080935F011092CB
:101950006101809181008E7F809381000BC0809116
:101960005E01882311F0269802C0269A2E9881E005
:1019700080930401FF91EF91BF91AF919F918F915F
:101980007F916F915F914F913F912F910F900FBE7B
:101990000F901F9018951092620110925F01269887
:1019A0002E9AE8E6F0E0808182608083ECE6F0E049
:1019B000808180648083089581E080936201E8E6FD
:1019C000F0E080818D7F8083ECE6F0E080818F7B8A
:1019D0008083269A089526982E9AE8E6F0E0808182
:1019E00082608083ECE6F0E0808180648083E1E8BF
:1019F000F0E080818860808384E791E090938900A3
:101A000080938800EFE6F0E0808182608083089513
:101A1000909104019923E1F31092040180935E01F7
:101A20000895DF92EF92FF920F931F93CF93DF936E
:101A3000E82E0E94DC0C1092850010928400909198
:101A4000810091609093810081E00E94080D81E007
:101A50000E94080D81E00E94080D80E00E94080DA0
:101A6000C8E0D0E001E010E0DD24D394FF24F3943B
:101A7000802F8E2109F4F12C8F2D0E94080DF1107A
:101A80001D25000F2197209789F7812F81700E94D3
:101A9000080D809104018823E1F38DE590E0019722
:101AA000F1F7809181008E7F80938100DF91CF914B
:101AB0001F910F91FF90EF90DF900C94CB0C0F9340
:101AC0001F93CF93DF931F92CDB7DEB78C01680FC2
:101AD000601741F0F80181918F0169830E94110D17
:101AE0006981F6CF0F90DF91CF911F910F910895EB
:101AF0000E94CB0C80915F018823E1F3809160010B
:101B000008951F920F920FB60F9211248F939F93F7
:101B1000EF93FF9380916301811112C08091D601F0
:101B200096B5E82FF0E0EE54FE4F90838F5F8093E0
:101B3000D601803228F081E0809363011092D601B3
:101B400080E480936000FF91EF919F918F910F90BF
:101B50000FBE0F901F90189580916301882309F4A0
:101B600055C08091D701843008F050C0E091D70172
:101B700024E0E29FF0011124E852FE4F20813181E0
:101B800042815381E2EBF1E08191280F311D411D2B
:101B9000511DA1E0B4E00E9409119B01AC01A6E037
:101BA0005695479537952795AA95D1F72627372734
:101BB0004827592781E0E23DF80731F7A9E0B0E076
:101BC0000E9409119B01AC01EBE0569547953795B2
:101BD0002795EA95D1F72627372748275927A1E0E7
:101BE000B0E80E940911E091D70124E0E29FF001E2
:101BF0001124E852FE4F6083718382839383109295
:101C000063018091D7018F5F8093D701089510926F
:101C1000D6011092B1011092D70114BEE0E6F0E0B7
:101C200080818861808380E4808316BC85B5816073
:101C300085BD089585B58E7F85BD14BEE0E6F0E0D4
:101C400080818061808310820895AF92BF92CF928D
:101C5000DF92EF92FF920F931F93CF93DF938091C8
:101C60006401811141C00E94AC0D8091D701843084
:101C7000D8F100E010E0C0E0D0E0F801EE0FFF1F67
:101C8000EE0FFF1FE852FE4FC080D180E280F3804C
:101C90006F2D772788279927CE010E94AA135E010E
:101CA0006E2DCE0101960E94AA136D2DCE010296D3
:101CB0000E94AA1324966C2DC50103960E94AA13B4
:101CC0000F5F1F4FC031D105C1F681E080936401E1
:101CD000DF91CF911F910F91FF90EF90DF90CF9008
:101CE000BF90AF900C941A0EDF91CF911F910F917E
:101CF000FF90EF90DF90CF90BF90AF9008951F922C
:101D00000F920FB60F9211242F933F934F935F932F
:101D10006F937F938F939F93AF93BF93EF93FF93B3
:101D2000589A0E94851187BD5898FF91EF91BF91F5
:101D3000AF919F918F917F916F915F914F913F9163
:101D40002F910F900FBE0F901F901895089585B595
:101D50008E7F85BD089580E091E09093ED018093A2
:101D6000EC018FEF81B9249A2C980E94070E0E94F3
:101D7000DD100E943810789484B782B92FEF3DEEC1
:101D800042E0215030404040E1F700C0000012B86E
:101D90005FEF8DEE92E0515080409040E1F700C03F
:101DA000000088E090E021E022B93FEF46E751E0F3
:101DB000315040405040E1F700C00000220F019731
:101DC000009791F70E94250EE0918C01EE2341F0DF
:101DD000E150E0938C01F0E0E459FE4F808106C0B1
:101DE0008091EC019091ED010E941E0A82B90E943F
:101DF000F010E8CF7F928F929F92AF92BF92CF92D6
:101E0000DF92EF92FF920F931F93CF93DF93CDB7A3
:101E1000DEB7E2970FB6F894DEBF0FBECDBF6C0100
:101E200000E010E0862E912C82E1A82E81E0B82EF1
:101E3000CE0101967C0108151905FCF4F60171909C
:101E40006F010E94780D7816A9F01F930F931F92CF
:101E50007F921F928F93BF92AF92FF92EF920E9458
:101E6000AE11B70180E00E9403110FB6F894DEBFF7
:101E70000FBECDBF0F5F1F4FDECFE2960FB6F894B7
:101E8000DEBF0FBECDBFDF91CF911F910F91FF90AD
:101E9000EF90DF90CF90BF90AF909F908F907F900A
:101EA0000895EF92FF920F931F93CF93DF9300D08B
:101EB00000D01F92CDB7DEB77C0125E0E5E0F1E070
:101EC000DE01119601900D922A95E1F765E0CE01B1
:101ED00001960E94FA0E8701E12CF12C8FEE0E94F0
:101EE000110D0E94780DF80181938F01FFEFEF1A19
:101EF000FF0A80E1E816F10489F70F900F900F9028
:101F00000F900F90DF91CF911F910F91FF90EF9065
:101F100008950F931F93CF93DF93CDB7DEB7279725
:101F20000FB6F894DEBF0FBECDBF8C0185E0EAE0AE
:101F3000F1E0DE01119601900D928A95E1F765E0DE
:101F4000CE0101960E94FA0E80EC0E94110D60E114
:101F5000C8010E945F0D80E98E831F8262E0CE017E
:101F600006960E945F0D27960FB6F894DEBF0FBE4F
:101F7000CDBFDF91CF911F910F910895CF93DF9344
:101F8000CDB7DEB762970FB6F894DEBF0FBECDBFF8
:101F9000CE0101960E94510F2C9A2C980E94250E7A
:101FA00080E094E00E94751081E6898B80E18A8B45
:101FB00062E0CE0141960E945F0DCE0101960E9423
:101FC000890F62960FB6F894DEBF0FBECDBFDF91CA
:101FD000CF910895CF93DF9300D000D0CDB7DEB777
:101FE0008BE3898380E98A8381E18B831C8264E0AF
:101FF000CE0101960E945F0D0F900F900F900F90F1
:10200000DF91CF910895E0918C01EE2341F0E150F2
:10201000E0938C01F0E0E459FE4F808108958091B7
:10202000EC019091ED010C941E0AEF92FF920F9338
:102030001F93CF93DF93EC018C01005F1F4F80E073
:1020400090E07C012FEFE21AF20A0E94A21389931A
:10205000F80181938F01F0E1EF16F10411F0C7014F
:10206000F0CFDF91CF911F910F91FF90EF900895E6
:102070001F93CF93DF93CDB7DEB7A0970FB6F89439
:10208000DEBF0FBECDBF10926B0110926A0110929D
:10209000690110926801CE0101960E9415100E94FC
:1020A000B00ABE016F5F7F4F8091EC019091ED010E
:1020B0000E94D8090E940310182F0E9403101F705D
:1020C000682F812F90E00E94AA13A0960FB6F89473
:1020D000DEBF0FBECDBFDF91CF911F91089590E07D
:1020E0000C94A21390E00C94AA13EF92FF920F931A
:1020F0001F93CF93DF93F894EC0101E014E0209755
:1021000041F1E0906801F09069012197C7010196C3
:10211000B8010E94141120916A0130916B0182175D
:102120009307B9F08091EC019091ED010E940310AA
:10213000F701E251FE4F808380916801909169011F
:102140000196B8010E94141190936901809368016F
:10215000D6CF7894DF91CF911F910F91FF90EF90A0
:10216000089580916A0190916B01209168013091EE
:1021700069018217930779F0FC01E251FE4F20813B
:10218000019661E074E00E94141190936B018093BA
:102190006A01822F089580E00895809168019091EE
:1021A000690120916A0130916B018217930710F445
:1021B0008F5F9B4F821B930B089589E190E0909372
:1021C000C5008093C400E0ECF0E0808182608083F1
:1021D000E1ECF0E0808188608083509A58980895FF
:1021E0009091C00095FFFCCF8093C6000895CF93D7
:1021F000DF93EC018991882319F00E94F010FACF47
:10220000DF91CF910895811103C0CB010C94F71099
:1022100008950E942811A59F900DB49F900DA49F32
:10222000800D911D11240895AA1BBB1B51E107C00D
:10223000AA1FBB1FA617B70710F0A61BB70B881F56
:10224000991F5A95A9F780959095BC01CD010895E5
:10225000A29FB001B39FC001A39F700D811D1124E7
:10226000911DB29F700D811D1124911D08958F92B3
:102270009F92AF92BF92CF92DF92EF92FF92CF9355
:10228000DF93EC01688179818A819B8161157105F9
:102290008105910521F464E279ED8BE597E02DE16C
:1022A00033EF41E050E00E94661449015A019B015E
:1022B000AC01A7EAB1E40E9409116B017C01ACEE0C
:1022C000B4EFA50194010E946114C60ED71EE81E4A
:1022D000F91EF7FE06C081E0C81AD108E10880E8BF
:1022E000F80AC882D982EA82FB82C6019F77DF9111
:1022F000CF91FF90EF90DF90CF90BF90AF909F90E5
:102300008F9008950E943711089580E091E00E9417
:1023100037110895A0E0B0E080930001909301018F
:10232000A0930201B09303010895FB01DC0102C0F8
:1023300005900D9241505040D8F70895FB01DC0103
:1023400002C001900D9241505040D8F70895DC0131
:1023500001C06D9341505040E0F70895AEE0B0E009
:10236000E4EBF1E10C9493140D891E8986E08C83D3
:102370001A8309838FEF9FE79E838D83AE01475EAB
:102380005F4F6F89788DCE0101960E94D011EF8149
:10239000F885E00FF11F10822E96E4E00C94AF1444
:1023A000ACE0B0E0E6EDF1E10C9485147C016B014A
:1023B0008A01FC0117821682838181FFBDC1CE0193
:1023C00001964C01F7019381F60193FD859193FFEE
:1023D00081916F01882309F4ABC1853239F493FDF3
:1023E000859193FF81916F01853229F4B70190E0C7
:1023F0000E94CE13E7CF512C312C20E02032A0F4E4
:102400008B3269F030F4803259F0833269F4206104
:102410002CC08D3239F0803339F4216026C022601F
:10242000246023C0286021C027FD27C030ED380F6D
:102430003A3078F426FF06C0FAE05F9E300D112492
:10244000532E13C08AE0389E300D1124332E2062A3
:102450000CC08E3221F426FD6BC1206406C08C3680
:1024600011F4206802C0883641F4F60193FD85918D
:1024700093FF81916F018111C1CF982F9F7D95545A
:10248000933028F40C5F1F4FFFE3F9830DC08336B0
:1024900031F0833771F0833509F05BC022C0F80159
:1024A000808189830E5F1F4F44244394512C540133
:1024B00015C03801F2E06F0E711CF801A080B180E8
:1024C00026FF03C0652D70E002C06FEF7FEFC501EE
:1024D0002C870E94C3132C0183012C852F77222E79
:1024E00017C03801F2E06F0E711CF801A080B180B6
:1024F00026FF03C0652D70E002C06FEF7FEFC501BE
:102500002C870E94B8132C012C852068222E830171
:1025100023FC1BC0832D90E048165906B0F4B70188
:1025200080E290E00E94CE133A94F4CFF50127FCAC
:10253000859127FE81915F01B70190E00E94CE1343
:1025400031103A94F1E04F1A51084114510471F7D7
:10255000E5C0843611F0893639F5F80127FF07C048
:1025600060817181828193810C5F1F4F08C06081FF
:102570007181882777FD8095982F0E5F1F4F2F76EA
:10258000B22E97FF09C090958095709561957F4F09
:102590008F4F9F4F2068B22E2AE030E0A4010E94A6
:1025A0000014A82EA81844C0853729F42F7EB22E17
:1025B0002AE030E025C0F22FF97FBF2E8F36C1F020
:1025C00018F4883579F0B4C0803719F0883721F0D5
:1025D000AFC02F2F2061B22EB4FE0DC08B2D8460B2
:1025E000B82E09C024FF0AC09F2F9660B92E06C0DE
:1025F00028E030E005C020E130E002C020E132E018
:10260000F801B7FE07C060817181828193810C5F00
:102610001F4F06C06081718180E090E00E5F1F4F08
:10262000A4010E940014A82EA818FB2DFF77BF2E2E
:10263000B6FE0BC02B2D2E7FA51450F4B4FE0AC09D
:10264000B2FC08C02B2D2E7E05C07A2C2B2D03C08A
:102650007A2C01C0752C24FF0DC0FE01EA0DF11D7E
:102660008081803311F4297E09C022FF06C0739453
:10267000739404C0822F867809F0739423FD13C0ED
:1026800020FF06C05A2C731418F4530C5718732CDF
:10269000731468F4B70180E290E02C870E94CE1397
:1026A00073942C85F5CF731410F4371801C0312CB6
:1026B00024FF12C0B70180E390E02C870E94CE1364
:1026C0002C8522FF17C021FF03C088E590E002C0DF
:1026D00088E790E0B7010CC0822F867859F021FD81
:1026E00002C080E201C08BE227FD8DE2B70190E0DD
:1026F0000E94CE13A51438F4B70180E390E00E9445
:10270000CE135A94F7CFAA94F401EA0DF11D8081FB
:10271000B70190E00E94CE13A110F5CF332009F449
:1027200051CEB70180E290E00E94CE133A94F6CFEA
:10273000F7018681978102C08FEF9FEF2C96E2E12F
:102740000C94A114F999FECF92BD81BDF89A9927F6
:1027500080B50895262FF999FECF1FBA92BD81BD8D
:1027600020BD0FB6F894FA9AF99A0FBE0196089513
:10277000FC010590615070400110D8F7809590954C
:102780008E0F9F1F0895FC01615070400190011051
:10279000D8F7809590958E0F9F1F08950F931F93E4
:1027A000CF93DF93182F092FEB018B8181FD03C09D
:1027B0008FEF9FEF20C082FF10C04E815F812C8180
:1027C0003D81421753077CF4E881F9819F012F5F17
:1027D0003F4F39832883108306C0E885F985812F10
:1027E0000995892B29F72E813F812F5F3F4F3F832A
:1027F0002E83812F902FDF91CF911F910F910895FC
:10280000FA01AA27283051F1203181F1E8946F9321
:102810006E7F6E5F7F4F8F4F9F4FAF4FB1E03ED0C7
:10282000B4E03CD0670F781F891F9A1FA11D680F65
:10283000791F8A1F911DA11D6A0F711D811D911D98
:10284000A11D20D009F468943F912AE0269F11240D
:102850003019305D3193DEF6CF010895462F477071
:10286000405D4193B3E00FD0C9F7F6CF462F4F70CC
:10287000405D4A3318F0495D31FD4052419302D02A
:10288000A9F7EACFB4E0A6959795879577956795D0
:10289000BA95C9F700976105710508959B01AC01D0
:1028A0000A2E06945795479537952795BA95C9F7F7
:1028B000620F731F841F951FA01D0895B7FF0C940E
:1028C00009110E940911821B930B0895052E97FB95
:1028D0001EF400940E947D1457FD07D00E94BC1482
:1028E00007FC03D04EF40C947D1450954095309520
:1028F00021953F4F4F4F5F4F08959095809570956C
:1029000061957F4F8F4F9F4F08952F923F924F9227
:102910005F926F927F928F929F92AF92BF92CF926F
:10292000DF92EF92FF920F931F93CF93DF93CDB778
:10293000DEB7CA1BDB0B0FB6F894DEBF0FBECDBFF0
:1029400009942A88398848885F846E847D848C84C1
:102950009B84AA84B984C884DF80EE80FD800C81CA
:102960001B81AA81B981CE0FD11D0FB6F894DEBFAD
:102970000FBECDBFED010895A1E21A2EAA1BBB1B0D
:10298000FD010DC0AA1FBB1FEE1FFF1FA217B3073B
:10299000E407F50720F0A21BB30BE40BF50B661F51
:1029A000771F881F991F1A9469F760957095809515
:1029B00090959B01AC01BD01CF010895F894FFCF24
:1029C0000100000001881000001088C000001057AE
:1029D0005000526563656976656420253032582061
:1029E000696E7374656164206F66202530325820EB
:0C29F00061742062797465202564000089
:00000001FF
